:020000040800F2
:1000000000500020D9330008ED300008F930000816
:10001000FF300008053100080B3100080000000027
:100020000000000000000000000000001131000886
:100030001D3100080000000029310008353100089A
:10004000213400082134000821340008213400083C
:10005000213400082134000821340008213400082C
:10006000213400082134000821340008213400081C
:10007000213400082134000821340008213400080C
:1000800021340008213400082134000821340008FC
:1000900021340008213400082134000821340008EC
:1000A00021340008213400082134000821340008DC
:1000B00045310008213400082134000821340008AB
:1000C00021340008213400082134000821340008BC
:1000D00021340008213400082134000821340008AC
:1000E00021340008213400082134000800000000F9
:1000F0000000000000000000000000000000000000
:0C01000000000000000000005FF808F1A3
:10010C0010B5054C237833B9044B13B10448AFF345
:10011C0000800123237010BD0C00002000000000A3
:10012C009434000808B5034B1BB103490348AFF3E3
:10013C00008008BD0000000010000020943400086E
:10014C0080F0004002E000BF81F0004142001FBF80
:10015C005FEA410392EA030F7FEA226C7FEA236C89
:10016C006AD04FEA1262D2EB1363C1BFD21841407E
:10017C0048404140B8BF5B42192B88BF704710F014
:10018C00004F40F4000020F07F4018BF404211F0B7
:10019C00004F41F4000121F07F4118BF494292EA1F
:1001AC00030F3FD0A2F1010241FA03FC10EB0C004B
:1001BC00C3F1200301FA03F100F0004302D54942D8
:1001CC0060EB4000B0F5000F13D3B0F1807F06D385
:1001DC0040084FEA310102F10102FE2A51D2B1F17D
:1001EC00004F40EBC25008BF20F0010040EA030072
:1001FC007047490040EB000010F4000FA2F101021F
:10020C00EDD1B0FA80FCACF1080CB2EB0C0200FAA8
:10021C000CF0AABF00EBC25052421843BCBFD040F6
:10022C001843704792F0000F81F4000106BF80F470
:10023C0000000132013BB5E74FEA41037FEA226C33
:10024C0018BF7FEA236C21D092EA030F04D092F0FE
:10025C00000F08BF0846704790EA010F1CBF002032
:10026C00704712F07F4F04D1400028BF40F000408F
:10027C00704712F100723CBF00F50000704700F0AF
:10028C00004343F0FE4040F4000070477FEA2262D6
:10029C0016BF08467FEA23630146420206BF5FEAA7
:1002AC00412390EA010F40F4800070474FF00003A7
:1002BC0004E000BF10F0004348BF40425FEA000C6E
:1002CC0008BF704743F0964301464FF000001CE016
:1002DC0050EA010208BF70474FF000030AE000BF6C
:1002EC0050EA010208BF704711F0004302D54042AA
:1002FC0061EB41015FEA010C02BF8446014600201C
:10030C0043F0B64308BFA3F18053A3F50003BCFA36
:10031C008CF2083AA3EBC25310DB01FA02FC6344E3
:10032C0000FA02FCC2F12002BCF1004F20FA02F2EA
:10033C0043EB020008BF20F00100704702F12002DD
:10034C0001FA02FCC2F1200250EA4C0021FA02F23E
:10035C0043EB020008BF20EADC7070474FF0FF0C43
:10036C001CEAD0521EBF1CEAD15392EA0C0F93EA3E
:10037C000C0F6FD01A4480EA010C400218BF5FEAE0
:10038C0041211ED04FF0006343EA501043EA511153
:10039C00A0FB01310CF00040B1F5000F3EBF49004D
:1003AC0041EAD3715B0040EA010062F17F02FD2A51
:1003BC001DD8B3F1004F40EBC25008BF20F0010034
:1003CC00704790F0000F0CF0004C08BF49024CEA4B
:1003DC00502040EA51207F3AC2BFD2F1FF0340EADD
:1003EC00C250704740F400004FF00003013A5DDC4E
:1003FC0012F1190FDCBF00F000407047C2F100028F
:10040C00410021FA02F1C2F1200200FA02FC5FEA7B
:10041C00310040F1000053EA4C0308BF20EADC70C5
:10042C00704792F0000F00F0004C02BF400010F437
:10043C00000F013AF9D040EA0C0093F0000F01F0E4
:10044C00004C02BF490011F4000F013BF9D041EA06
:10045C000C018FE70CEAD15392EA0C0F18BF93EA08
:10046C000C0F0AD030F0004C18BF31F0004CD8D132
:10047C0080EA010000F00040704790F0000F17BFB9
:10048C0090F0004F084691F0000F91F0004F14D0FF
:10049C0092EA0C0F01D142020FD193EA0C0F03D157
:1004AC004B0218BF084608D180EA010000F000405A
:1004BC0040F0FE4040F40000704740F0FE4040F435
:1004CC00400070474FF0FF0C1CEAD0521EBF1CEAD4
:1004DC00D15392EA0C0F93EA0C0F69D0A2EB0302F2
:1004EC0080EA010C49024FEA402037D04FF080538C
:1004FC0043EA111143EA10130CF000408B4238BF51
:10050C005B0042F17D024FF4000C8B4224BF5B1A5E
:10051C0040EA0C00B3EB510F24BFA3EB510340EAAC
:10052C005C00B3EB910F24BFA3EB910340EA9C005A
:10053C00B3EBD10F24BFA3EBD10340EADC001B01CA
:10054C0018BF5FEA1C1CE0D1FD2A3FF650AF8B426E
:10055C0040EBC25008BF20F0010070470CF0004C7B
:10056C004CEA50207F32C2BFD2F1FF0340EAC250A6
:10057C00704740F400004FF00003013A37E792F067
:10058C00000F00F0004C02BF400010F4000F013AC5
:10059C00F9D040EA0C0093F0000F01F0004C02BFC0
:1005AC00490011F4000F013BF9D041EA0C0195E729
:1005BC000CEAD15392EA0C0F08D142027FF47DAFC2
:1005CC0093EA0C0F7FF470AF084676E793EA0C0FB2
:1005DC0004D14B023FF44CAF08466EE730F0004CB0
:1005EC0018BF31F0004CCAD130F000427FF45CAF40
:1005FC0031F000437FF43CAF5FE700BF42000ED206
:10060C00B2F1FE4F0BD34FF09E03B3EB126209D441
:10061C004FEA002343F0004323FA02F070474FF0F7
:10062C000000704712F1610F01D1420202D14FF06C
:10063C00FF3070474FF00000704700BF80B500AF2F
:10064C00084B1B68074A43F0100313600320064B4A
:10065C0098470020054B9847054B984700231846B0
:10066C0080BD00BF00200240DD0E0008810600089E
:10067C00292F000880B582B000AF7860124B1A6841
:10068C00124B1B7819464FF47A73B3FBF1F3B2FBA0
:10069C00F3F318460E4B98470346002B01D0012369
:1006AC000EE07B680F2B0AD8002279684FF0FF30E0
:1006BC00084B9847084A7B681360002300E001232D
:1006CC0018460837BD4680BD0800002004000020F5
:1006DC005D0F0008F90E00080000002080B400AF88
:1006EC00054B1B781A46054B1B681344034A1360D1
:1006FC0000BFBD4680BC70470400002028000020CD
:10070C0080B400AF024B1B681846BD4680BC7047D6
:10071C002800002080B586B000AF78600023FB7500
:10072C0000233B610023BB600023FB607B68002B34
:10073C0001D10123BEE07B689B68002B7B689B6A20
:10074C00002B09D17B680022DA627B68002283F8D7
:10075C0024207868594B98477868594B984703463A
:10076C00FB757B689B6A03F01003002B40F09980AB
:10077C00FB7D002B40F095807B689B6A23F48853AB
:10078C0023F0020343F002027B689A627B685A688A
:10079C007B68DB691A437B68DB685B001343BA68D0
:1007AC001343BB607B689B68B3F5807F03D07B6889
:1007BC009B68012B02D14FF4807300E000233A694F
:1007CC0013433B617B685B69012B19D17B68DB6848
:1007DC00002B09D17B689B69013B5A033B6913438E
:1007EC0043F400633B610BE07B689B6A43F020029F
:1007FC007B689A627B68DB6A43F001027B68DA6291
:10080C007B681B685B6823F469417B681B683A69E9
:10081C000A435A607B681B689A682A4B13407A68B3
:10082C001268B9680B4393607B689B68B3F5807F53
:10083C0003D07B689B68012B04D17B681B69013B4F
:10084C001B05FB607B681B68DB6A23F470017B680B
:10085C001B68FA680A43DA627B681B689A681A4B51
:10086C001340BA689A420BD17B680022DA627B682B
:10087C009B6A23F0030343F001027B689A6218E041
:10088C007B689B6A23F0120343F010027B689A6228
:10089C007B68DB6A43F001027B68DA620123FB753B
:1008AC0007E07B689B6A43F010027B689A62012325
:1008BC00FB75FB7D18461837BD4680BD8D2F000893
:1008CC00D10C0008FDF7E1FFFE0E1FFF80B584B0D0
:1008DC0000AF78600023FB737B6893F82430012B06
:1008EC0001D1022398E07B68012283F824207868E8
:1008FC004B4B98470346FB73FB7B002B40F08780E8
:10090C007B689B6A23F4407323F0010343F48072E9
:10091C007B689A627B681B68424A934205D1424BC2
:10092C005B6803F47023002B15D17B689B6A23F45E
:10093C0080127B689A627B681B685B6803F4806337
:10094C00002B26D07B689B6A23F4405343F48052DF
:10095C007B689A621DE07B689B6A43F480127B681B
:10096C009A627B681B68304A934204D07B681B6890
:10097C002C4A93420DD12C4B5B6803F48063002B03
:10098C0007D07B689B6A23F4405343F480527B6806
:10099C009A627B689B6A03F48053002B06D07B68B9
:1009AC00DB6A23F006027B68DA6202E07B680022D5
:1009BC00DA627B68002283F824207B681B686FF066
:1009CC0002021A607B681B689B6803F46023B3F512
:1009DC00602F13D17B681B68124A934205D1124BCE
:1009EC005B6803F47023002B08D17B681B689A6842
:1009FC007B681B6842F4A0029A600CE07B681B6861
:100A0C009A687B681B6842F480129A6003E07B68EA
:100A1C00002283F82420FB7B18461037BD4680BD8E
:100A2C00290C0008002801400024014080B485B046
:100A3C0000AF786039600023FB730023BB607B68D8
:100A4C0093F82430012B01D10223DCE07B680122D6
:100A5C0083F824203B685B68062B1CD87B681B68DA
:100A6C00596B3B685A6813469B001344053B1F2285
:100A7C0002FA03F3DB4319403B6818683B685A6879
:100A8C0013469B001344053B00FA03F27B681B687A
:100A9C000A435A633CE03B685B680C2B1CD87B68B0
:100AAC001B68196B3B685A6813469B001344233B25
:100ABC001F2202FA03F3DB4319403B6818683B68BA
:100ACC005A6813469B001344233B00FA03F27B68DD
:100ADC001B680A431A631BE07B681B68D96A3B6876
:100AEC005A6813469B001344413B1F2202FA03F33E
:100AFC00DB4319403B6818683B685A6813469B00F7
:100B0C001344413B00FA03F27B681B680A43DA6228
:100B1C003B681B68092B1CD97B681B68D9683B6830
:100B2C001A6813465B0013441E3B072202FA03F3B8
:100B3C00DB4319403B6898683B681A6813465B00B6
:100B4C0013441E3B00FA03F27B681B680A43DA600D
:100B5C0019E07B681B6819693B681A6813465B00CF
:100B6C001344072202FA03F3DB4319403B689868ED
:100B7C003B681A6813465B00134400FA03F27B6867
:100B8C001B680A431A613B681B68102B03D03B6837
:100B9C001B68112B32D17B681B681D4A934225D1EF
:100BAC007B681B689B6803F40003002B26D17B68D1
:100BBC001B689A687B681B6842F400029A603B6869
:100BCC001B68102B1AD1134B1B68134AA2FB03236F
:100BDC009A0C13469B0013445B00BB6002E0BB689D
:100BEC00013BBB60BB68002BF9D107E07B689B6ABB
:100BFC0043F020027B689A620123FB737B6800221E
:100C0C0083F82420FB7B18461437BD4680BC704704
:100C1C00002401400800002083DE1B4380B584B013
:100C2C0000AF78600023FB600023BB607B681B680F
:100C3C009B6803F00103012B39D07B681B689A6811
:100C4C007B681B6842F001029A601B4B1B681B4AB5
:100C5C00A2FB03239B0CBB6002E0BB68013BBB60A7
:100C6C00BB68002BF9D1164B9847F86018E0144B71
:100C7C0098470246FB68D31A022B11D97B689B6AF2
:100C8C0043F010027B689A627B68DB6A43F00102D6
:100C9C007B68DA627B68002283F82420012307E05A
:100CAC007B681B689B6803F00103012BDFD10023D9
:100CBC0018461037BD4680BD0800002083DE1B435C
:100CCC000D07000880B584B000AF78600023FB608E
:100CDC007B681B689B6803F00103012B27D17B68A1
:100CEC001B689A687B681B6822F001029A60124BA1
:100CFC009847F86014E0104B98470246FB68D31AEB
:100D0C00022B0DD97B689B6A43F010027B689A62B8
:100D1C007B68DB6A43F001027B68DA62012307E03F
:100D2C007B681B689B6803F00103012BE3D0002355
:100D3C0018461037BD4680BD0D07000880B485B03D
:100D4C0000AF78607B6803F00703FB600C4BDB683B
:100D5C00BB60BA684FF6FF031340BB60FB681A0216
:100D6C00BB68134343F0BF6343F40033BB60044AD6
:100D7C00BB68D36000BF1437BD4680BC704700BF52
:100D8C0000ED00E080B400AF044BDB681B0A03F0FD
:100D9C0007031846BD4680BC704700BF00ED00E05D
:100DAC0080B483B000AF0346FB71FB7903F01F02E4
:100DBC00064997F907305B09012000FA02F241F865
:100DCC00232000BF0C37BD4680BC704700E100E01B
:100DDC0080B483B000AF03463960FB7197F90730DC
:100DEC00002B0BDA3B68DAB20C49FB7903F00F03EA
:100DFC00043B1201D2B20B441A7609E03B68DAB21A
:100E0C00074997F907301201D2B20B4483F800233B
:100E1C0000BF0C37BD4680BC704700BF00ED00E042
:100E2C0000E100E080B489B000AFF860B9607A608E
:100E3C00FB6803F00703FB61FB69C3F10703042B99
:100E4C0028BF0423BB61FB690433062B02D9FB6961
:100E5C00033B00E000237B614FF0FF32BB6902FAD9
:100E6C0003F3DA43BB681A407B699A404FF0FF31B9
:100E7C007B6901FA03F3D9437B680B401343184693
:100E8C002437BD4680BC704780B582B000AF786017
:100E9C007B68013BB3F1807F01D301230FE00A4A49
:100EAC007B68013B53600F214FF0FF30074B984795
:100EBC00054B00229A60044B07221A600023184647
:100ECC000837BD4680BD00BF10E000E0DD0D000816
:100EDC0080B582B000AF78607868034B984700BF4C
:100EEC000837BD4680BD00BF490D000880B586B0EF
:100EFC0000AF0346B9607A60FB7300237B61094B3A
:100F0C00984778617A68B9687869074B98470246C0
:100F1C0097F90F3011461846044B984700BF183705
:100F2C00BD4680BD910D0008310E0008DD0D000896
:100F3C0080B582B000AF0346FB7197F907301846B5
:100F4C00024B984700BF0837BD4680BDAD0D000869
:100F5C0080B582B000AF78607868034B9847034641
:100F6C0018460837BD4680BD950E000880B48BB07E
:100F7C0000AF786039600023FB610023BB61002364
:100F8C007B6100233B6200233B6100237B6227E1F2
:100F9C0001227B6A02FA03F3FB613B681B68FA6966
:100FAC001340BB61BA69FB699A4240F016813B68F9
:100FBC005B68122B34D0122B0DD8022B2BD0022BAA
:100FCC0004D8002B31D0012B1CD048E0032B43D08C
:100FDC00112B1BD043E0874A934226D0854A93427B
:100FEC0006D8854A934220D0844A93421DD036E0DD
:100FFC00834A934219D0834A934216D0824A934231
:10100C0013D02CE03B68DB683B6228E03B68DB6874
:10101C0004333B6223E03B68DB6808333B621EE031
:10102C003B68DB680C333B6219E03B689B68002B28
:10103C0002D104233B6212E03B689B68012B05D173
:10104C0008233B627B68FA691A6108E008233B625B
:10105C007B68FA695A6102E000233B6200BFBB69FE
:10106C00FF2B01D87B6801E07B680433FB60BB6914
:10107C00FF2B02D87B6A9B0002E07B6A083B9B003B
:10108C003B61FB681A680F213B6901FA03F3DB43F0
:10109C001A40396A3B6901FA03F31A43FB681A6078
:1010AC003B685B6803F08053002B00F09680574B35
:1010BC009B69564A43F001039361544B9B6903F0BF
:1010CC000103BB60BB68524A7B6A9B08023352F82F
:1010DC0023307B617B6A03F003039B000F2202FA2F
:1010EC0003F3DB437A6913407B617B68494A934283
:1010FC0013D07B68484A93420DD07B68474A934291
:10110C0007D07B68464A934201D1032306E00423AF
:10111C0004E0022302E0012300E000237A6A02F0DB
:10112C000302920093407A6913437B6138497B6ACE
:10113C009B0802337A6941F823203B685B6803F40F
:10114C008033002B06D0374B1A683649BB691343E2
:10115C000B6006E0334B1A68BB69DB433149134023
:10116C000B603B685B6803F40033002B06D02D4BFF
:10117C005A682C49BB6913434B6006E0294B5A68EB
:10118C00BB69DB43274913404B603B685B6803F446
:10119C008013002B06D0234B9A682249BB6913435A
:1011AC008B6006E01F4B9A68BB69DB431D491340FB
:1011BC008B603B685B6803F40013002B06D0194B63
:1011CC00DA681849BB691343CB6006E0154BDA6843
:1011DC00BB69DB4313491340CB607B6A01337B62F1
:1011EC007B6A0F2B7FF6D4AE00BF2C37BD4680BC7C
:1011FC00704700BF000021100000111000001210F9
:10120C0000003110000032100000221000100240CB
:10121C000000014000080140000C0140001001409A
:10122C00001401400004014080B483B000AF78602A
:10123C000B467B8013467B707B78002B03D07A881F
:10124C007B681A6103E07B881A047B681A6100BF13
:10125C000C37BD4680BC704780B586B000AF786057
:10126C0000233B617B681B6803F00103002B00F03B
:10127C008780924B5B6803F00C03042B0CD08F4BD4
:10128C005B6803F00C03082B12D18C4B5B6803F4E6
:10129C008033B3F5803F0BD1884B1B6803F40033CC
:1012AC00002B6CD07B685B68002B68D1012331E28A
:1012BC007B685B68B3F5803F06D1804B1B687F4A27
:1012CC0043F4803313602EE07B685B68002B0CD1F9
:1012DC007A4B1B68794A23F480331360774B1B6875
:1012EC00764A23F4802313601DE07B685B68B3F5BA
:1012FC00A02F0CD1714B1B68704A43F480231360F0
:10130C006E4B1B686D4A43F4803313600BE06B4BE0
:10131C001B686A4A23F480331360684B1B68674A66
:10132C0023F4802313607B685B68002B13D0644B21
:10133C009847386108E0624B984702463B69D31ADC
:10134C00642B01D90323E5E15C4B1B6803F40033E8
:10135C00002BF0D014E05A4B9847386108E0584BFA
:10136C00984702463B69D31A642B01D90323D1E178
:10137C00524B1B6803F40033002BF0D100E000BF8C
:10138C007B681B6803F00203002B63D04B4B5B683C
:10139C0003F00C03002B0BD0484B5B6803F00C03E1
:1013AC00082B1CD1454B5B6803F48033002B16D102
:1013BC00424B1B6803F00203002B05D07B681B69B2
:1013CC00012B01D00123A5E13C4B1B6823F0F80253
:1013DC007B685B69DB00394913430B603AE07B683F
:1013EC001B69002B20D0374B01221A60344B9847D5
:1013FC00386108E0324B984702463B69D31A022BFE
:10140C0001D9032386E12D4B1B6803F00203002B4B
:10141C00F0D02A4B1B6823F0F8027B685B69DB0079
:10142C00264913430B6015E0264B00221A60244B0F
:10143C009847386108E0224B984702463B69D31A1B
:10144C00022B01D9032365E11C4B1B6803F002033B
:10145C00002BF0D17B681B6803F00803002B3DD0F8
:10146C007B689B69002B19D0174B01221A60144B17
:10147C009847386108E0124B984702463B69D31AEB
:10148C00022B01D9032345E10C4B5B6A03F00203E9
:10149C00002BF0D001200D4B98471FE00A4B002287
:1014AC001A60074B9847386112E0054B9847024683
:1014BC003B69D31A022B0BD903232BE100100240FA
:1014CC000D0700080000424280044242211A000825
:1014DC00924B5B6A03F00203002BE6D17B681B681E
:1014EC0003F00403002B00F0A6800023FB758B4B4C
:1014FC00DB6903F08053002B0DD1884BDB69874AE5
:10150C0043F08053D361854BDB6903F08053FB6060
:10151C00FB680123FB75824B1B6803F48073002B63
:10152C0018D17F4B1B687E4A43F4807313607D4B4C
:10153C009847386108E07B4B984702463B69D31AC1
:10154C00642B01D90323E5E0754B1B6803F480730E
:10155C00002BF0D07B68DB68012B06D16F4B1B6A2C
:10156C006E4A43F0010313622DE07B68DB68002BAD
:10157C000CD16A4B1B6A694A23F001031362674B57
:10158C001B6A664A23F0040313621CE07B68DB6869
:10159C00052B0CD1614B1B6A604A43F004031362A8
:1015AC005E4B1B6A5D4A43F0010313620BE05B4B1D
:1015BC001B6A5A4A23F001031362584B1B6A574AA1
:1015CC0023F0040313627B68DB68002B15D0554BAA
:1015DC00984738610AE0534B984702463B69D31A47
:1015EC0041F28832934201D9032393E04B4B1B6A9F
:1015FC0003F00203002BEED014E04A4B98473861FD
:10160C000AE0484B984702463B69D31A41F28832AC
:10161C00934201D903237DE0404B1B6A03F0020384
:10162C00002BEED1FB7D012B05D13C4BDB693B4AFA
:10163C0023F08053D3617B68DB69002B69D0374B77
:10164C005B6803F00C03082B61D07B68DB69022B11
:10165C0046D1354B00221A60324B9847386108E06E
:10166C00304B984702463B69D31A022B01D903230E
:10167C0050E02A4B1B6803F00073002BF0D17B6801
:10168C001B6AB3F5803F08D1244B5B6823F400320E
:10169C007B689B68214913434B60204B5B6823F4A8
:1016AC0074127B68196A7B685B6A0B431B49134392
:1016BC004B601D4B01221A601A4B9847386108E0A9
:1016CC00184B984702463B69D31A022B01D90323C6
:1016DC0020E0124B1B6803F00073002BF0D018E0D5
:1016EC00114B00221A600F4B9847386108E00D4BE4
:1016FC00984702463B69D31A022B01D9032309E010
:10170C00064B1B6803F00073002BF0D101E00123A2
:10171C0000E0002318461837BD4680BD001002407B
:10172C00007000400D0700086000424280B584B094
:10173C0000AF786039600023FB607E4B1B6803F0C0
:10174C0007033A689A4210D97A4B1B6823F00702B8
:10175C0078493B6813430B60764B1B6803F0070317
:10176C003A689A4201D00123E0E07B681B6803F0E1
:10177C000203002B20D07B681B6803F00403002BB2
:10178C0005D06D4B5B686C4A43F4E06353607B6837
:10179C001B6803F00803002B05D0674B5B68664A97
:1017AC0043F460535360644B5B6823F0F0027B6836
:1017BC009B68614913434B607B681B6803F0010312
:1017CC00002B6AD07B685B68012B07D15A4B1B68D6
:1017DC0003F40033002B15D10123A7E07B685B6871
:1017EC00022B07D1544B1B6803F00073002B09D15B
:1017FC0001239BE0504B1B6803F00203002B01D12B
:10180C00012393E04C4B5B6823F003027B685B681D
:10181C00494913434B60494B9847F8607B685B68B8
:10182C00012B12D10AE0454B98470246FB68D31AAC
:10183C0041F28832934201D9032377E03E4B5B6837
:10184C0003F00C03042BEED127E07B685B68022BC2
:10185C001DD10AE0394B98470246FB68D31A41F276
:10186C008832934201D9032360E0334B5B6803F069
:10187C000C03082BEED110E0304B98470246FB6866
:10188C00D31A41F28832934201D903234EE02A4BFA
:10189C005B6803F00C03002BEED1264B1B6803F0A6
:1018AC0007033A689A4210D2224B1B6823F00702B6
:1018BC0020493B6813430B601E4B1B6803F0070366
:1018CC003A689A4201D0012330E07B681B6803F030
:1018DC000403002B08D0184B5B6823F4E0627B6890
:1018EC00DB68154913434B607B681B6803F00803E6
:1018FC00002B09D0104B5B6823F460527B681B698A
:10190C00DB000D4913434B600D4B984701460A4BC6
:10191C005B681B0903F00F030A4AD35C21FA03F33B
:10192C00094A13600020094B9847002318461037CA
:10193C00BD4680BD00200240001002400D0700088B
:10194C005D190008C034000808000020810600085A
:10195C0090B48AB000AF2A4B3C1D0FCB84E80F002B
:10196C00284B1B883B800023FB610023BB610023B9
:10197C007B6200237B6100233B62234B5B68FB6132
:10198C00FB6903F00C03042B02D0082B03D02DE0D1
:10199C001E4B3B622DE0FB699B0C03F00F0307F120
:1019AC002802134413F8243C7B61FB6903F4803355
:1019BC00002B13D0144B5B685B0C03F0010307F195
:1019CC002802134413F8283CBB617B690F4A02FBC5
:1019DC0003F2BB69B2FBF3F37B6204E07B690C4A54
:1019EC0002FB03F37B627B6A3B6202E0074B3B62C8
:1019FC0000BF3B6A18462837BD4690BC704700BFF5
:101A0C00AC340008BC3400080010024000127A000C
:101A1C0000093D0080B485B000AF78600A4B1B68AC
:101A2C000A4AA2FB03235B0A7A6802FB03F3FB60FE
:101A3C0000BFFB685A1EFA60002BF9D100BF1437A7
:101A4C00BD4680BC704700BF08000020D34D62101B
:101A5C0080B586B000AF786000233B610023FB604B
:101A6C007B681B6803F00103002B7DD00023FB7502
:101A7C004F4BDB6903F08053002B0DD14C4BDB69D2
:101A8C004B4A43F08053D361494BDB6903F08053DD
:101A9C00BB60BB680123FB75464B1B6803F480736A
:101AAC00002B18D1434B1B68424A43F480731360DC
:101ABC00414B9847386108E03F4B984702463B69D9
:101ACC00D31A642B01D903236DE03A4B1B6803F442
:101ADC008073002BF0D0364B1B6A03F44073FB6011
:101AEC00FB68002B2ED07B685B6803F44073FA68AC
:101AFC009A4227D02E4B1B6A23F44073FB602F4B6A
:101B0C0001221A602D4B00221A60294AFB681362CD
:101B1C00FB6803F00103002B14D0274B9847386166
:101B2C000AE0254B984702463B69D31A41F28832AA
:101B3C00934201D9032336E01D4B1B6A03F00203C9
:101B4C00002BEED01A4B1B6A23F440727B685B6847
:101B5C00174913430B62FB7D012B05D1144BDB6939
:101B6C00134A23F08053D3617B681B6803F0020394
:101B7C00002B08D00E4B5B6823F440427B689B68BB
:101B8C000B4913434B607B681B6803F01003002B5D
:101B9C0008D0074B5B6823F480027B68DB68044940
:101BAC0013434B60002318461837BD4680BD00BF59
:101BBC0000100240007000400D0700084004424233
:101BCC0080B582B000AF78607B68002B01D1012317
:101BDC001DE07B6893F83D30DBB2002B06D17B68AF
:101BEC00002283F83C2078680B4B98477B680222D4
:101BFC0083F83D207B681A687B68043319461046CD
:101C0C00064B98477B68012283F83D200023184639
:101C1C000837BD4680BD00BF09300008012300080D
:101C2C0080B483B000AF78607B681B68DA687B682F
:101C3C001B6842F00102DA607B681B681A687B68DB
:101C4C001B6842F001021A60002318460C37BD468F
:101C5C0080BC704780B582B000AF78607B68002B89
:101C6C0001D101231DE07B6893F83D30DBB2002BE2
:101C7C0006D17B68002283F83C2078680B4B984790
:101C8C007B68022283F83D207B681A687B680433EA
:101C9C0019461046064B98477B68012283F83D2075
:101CAC00002318460837BD4680BD00BFC11C000884
:101CBC000123000880B483B000AF786000BF0C37FC
:101CCC00BD4680BC7047000080B582B000AF786024
:101CDC0039607B681B680122396818460D4B9847A0
:101CEC007B681B680C4A934207D17B681B685A6C53
:101CFC007B681B6842F400425A647B681B681A6854
:101D0C007B681B6842F001021A60002318460837F2
:101D1C00BD4680BD57280008002C014080B582B01C
:101D2C0000AF78607B681B681B6903F00203022B11
:101D3C0022D17B681B68DB6803F00203022B1BD1EA
:101D4C007B681B686FF002021A617B6801221A77AC
:101D5C007B681B689B6903F00303002B03D0786836
:101D6C00724B984705E07868714B98477868714BCF
:101D7C0098477B6800221A777B681B681B6903F005
:101D8C000403042B22D17B681B68DB6803F004037B
:101D9C00042B1BD17B681B686FF004021A617B68F3
:101DAC0002221A777B681B689B6903F44073002B33
:101DBC0003D078685D4B984705E078685C4B984792
:101DCC0078685C4B98477B6800221A777B681B68A5
:101DDC001B6903F00803082B22D17B681B68DB68A6
:101DEC0003F00803082B1BD17B681B686FF00802FB
:101DFC001A617B6804221A777B681B68DB6903F025
:101E0C000303002B03D07868484B984705E07868AB
:101E1C00474B98477868474B98477B6800221A775E
:101E2C007B681B681B6903F01003102B22D17B68A5
:101E3C001B68DB6803F01003102B1BD17B681B683D
:101E4C006FF010021A617B6808221A777B681B6896
:101E5C00DB6903F44073002B03D07868334B98474D
:101E6C0005E07868324B98477868324B98477B6826
:101E7C0000221A777B681B681B6903F00103012B96
:101E8C000ED17B681B68DB6803F00103012B07D1C3
:101E9C007B681B686FF001021A617868264B9847C3
:101EAC007B681B681B6903F08003802B0ED17B6859
:101EBC001B68DB6803F08003802B07D17B681B68F1
:101ECC006FF080021A6178681C4B98477B681B681E
:101EDC001B6903F04003402B0ED17B681B68DB6849
:101EEC0003F04003402B07D17B681B686FF0400266
:101EFC001A617868124B98477B681B681B6903F062
:101F0C002003202B0ED17B681B68DB6803F02003B9
:101F1C00202B07D17B681B686FF020021A61786850
:101F2C00084B984700BF0837BD4680BDCB22000840
:101F3C00B9220008DD220008F9290008E52900086B
:101F4C00EF220008D329000880B584B000AFF860F8
:101F5C00B9607A60FB6893F83C30012B01D1022305
:101F6C00B4E0FB68012283F83C20FB68022283F872
:101F7C003D207B680C2B00F29F8001A252F823F0CD
:101F8C00C11F0008C5200008C5200008C520000896
:101F9C0001200008C5200008C5200008C520000845
:101FAC0043200008C5200008C5200008C5200008F3
:101FBC0083200008FB681B68B9681846454B984796
:101FCC00FB681B689A69FB681B6842F008029A61FF
:101FDC00FB681B689A69FB681B6822F004029A6113
:101FEC00FB681B689969BB681A69FB681B680A4324
:101FFC009A6162E0FB681B68B9681846364B9847D3
:10200C00FB681B689A69FB681B6842F400629A6162
:10201C00FB681B689A69FB681B6822F480629A61F2
:10202C00FB681B689969BB681B691A02FB681B6813
:10203C000A439A6141E0FB681B68B9681846274B54
:10204C009847FB681B68DA69FB681B6842F008025A
:10205C00DA61FB681B68DA69FB681B6822F0040212
:10206C00DA61FB681B68D969BB681A69FB681B6875
:10207C000A43DA6121E0FB681B68B9681846184B03
:10208C009847FB681B68DA69FB681B6842F40062BE
:10209C00DA61FB681B68DA69FB681B6822F48062F2
:1020AC00DA61FB681B68D969BB681B691A02FB689B
:1020BC001B680A43DA6100E000BFFB68012283F869
:1020CC003D20FB68002283F83C2000231846103783
:1020DC00BD4680BDCD230008A52400088525000839
:1020EC006526000890B585B000AF78603960002394
:1020FC00FB607B6893F83C30012B01D10223C8E0D4
:10210C007B68012283F83C207B68022283F83D2007
:10211C007B681B689B68FB60FB6823F07703FB60A4
:10212C00FB6823F47F43FB607B681B68FA689A604A
:10213C003B681B68402B77D0402B0ED8102B00F03F
:10214C008A80102B02D8002B7ED099E0202B00F037
:10215C008980302B00F08D8092E0702B16D0702B84
:10216C0004D8502B40D0602B4ED089E0B3F5805F63
:10217C0003D0B3F5005F24D082E07B681B689A68BB
:10218C007B681B6822F007029A6079E07B6818680C
:10219C003B6899683B685A683B68DB683F4CA047D2
:1021AC007B681B689B68FB60FB6823F07703FB6014
:1021BC00FB6843F07703FB607B681B68FA689A60E6
:1021CC005EE07B6818683B6899683B685A683B68B6
:1021DC00DB68324CA0477B681B689A687B681B687D
:1021EC0042F480429A604BE07B6818683B685968FF
:1021FC003B68DB681A462A4B98477B681B68502162
:10220C001846284B98473BE07B6818683B68596830
:10221C003B68DB681A46244B98477B681B68602137
:10222C001846204B98472BE07B6818683B68596828
:10223C003B68DB681A461A4B98477B681B68402141
:10224C001846184B98471BE07B681B680021184602
:10225C00144B984714E07B681B6810211846114BEF
:10226C0098470DE07B681B68202118460D4B98475A
:10227C0006E07B681B68302118460A4B984700BF64
:10228C007B68012283F83D207B68002283F83C2088
:10229C00002318461437BD4690BD00BF1528000812
:1022AC000D270008D72700087127000880B483B0D9
:1022BC0000AF786000BF0C37BD4680BC704780B45F
:1022CC0083B000AF786000BF0C37BD4680BC704750
:1022DC0080B483B000AF786000BF0C37BD4680BCC3
:1022EC00704780B483B000AF786000BF0C37BD4638
:1022FC0080BC704780B485B000AF78603960002333
:10230C00FB607B681B68FB607B682A4A93420BD09E
:10231C007B68B3F1804F07D07B68274A934203D088
:10232C007B68264A934208D1FB6823F07003FB605C
:10233C003B685B68FA681343FB607B681D4A9342F9
:10234C000BD07B68B3F1804F07D07B681A4A93425D
:10235C0003D07B68194A934208D1FB6823F440737D
:10236C00FB603B68DB68FA681343FB60FB6823F097
:10237C008003FB603B685B69FA681343FB607B6816
:10238C00FA681A603B689A687B68DA623B681A687C
:10239C007B689A627B68074A934203D13B681A694F
:1023AC007B681A637B6801225A6100BF1437BD46F3
:1023BC0080BC7047002C0140000400400008004025
:1023CC0080B487B000AF786039600023FB600023D5
:1023DC007B6100233B617B681B6A23F001027B68F5
:1023EC001A627B681B6A7B617B685B683B617B68FC
:1023FC009B69FB60FB6823F07003FB60FB6823F0B8
:10240C000303FB603B681B68FA681343FB607B6942
:10241C0023F002037B613B689B687A6913437B6101
:10242C007B681C4A93420CD17B6923F008037B61C7
:10243C003B68DB687A6913437B617B6923F0040397
:10244C007B617B68134A934211D13B6923F48073FF
:10245C003B613B6923F400733B613B685B693A6900
:10246C0013433B613B689B693A6913433B617B684F
:10247C003A695A607B68FA689A613B685A687B686B
:10248C005A637B687A691A6200BF1C37BD4680BCF0
:10249C00704700BF002C014080B487B000AF78605B
:1024AC0039600023FB6000237B6100233B617B6868
:1024BC001B6A23F010027B681A627B681B6A7B61C3
:1024CC007B685B683B617B689B69FB60FB6823F402
:1024DC00E043FB60FB6823F44073FB603B681B68C4
:1024EC001B02FA681343FB607B6923F020037B61BA
:1024FC003B689B681B017A6913437B617B681D4AAF
:10250C0093420DD17B6923F080037B613B68DB68D0
:10251C001B017A6913437B617B6923F040037B6168
:10252C007B68144A934213D13B6923F480633B616B
:10253C003B6923F400633B613B685B699B003A6930
:10254C0013433B613B689B699B003A6913433B61B6
:10255C007B683A695A607B68FA689A613B685A688A
:10256C007B689A637B687A691A6200BF1C37BD4628
:10257C0080BC7047002C014080B487B000AF7860FD
:10258C0039600023FB6000237B6100233B617B6887
:10259C001B6A23F480727B681A627B681B6A7B61FE
:1025AC007B685B683B617B68DB69FB60FB6823F0E5
:1025BC007003FB60FB6823F00303FB603B681B6844
:1025CC00FA681343FB607B6923F400737B613B68FF
:1025DC009B681B027A6913437B617B681D4A93429B
:1025EC000DD17B6923F400637B613B68DB681B02C4
:1025FC007A6913437B617B6923F480637B617B681D
:10260C00144A934213D13B6923F480533B613B69D9
:10261C0023F400533B613B685B691B013A6913432C
:10262C003B613B689B691B013A6913433B617B68C7
:10263C003A695A607B68FA68DA613B685A687B6869
:10264C00DA637B687A691A6200BF1C37BD4680BCAE
:10265C00704700BF002C014080B487B000AF786099
:10266C00396000233B610023FB6000237B617B68A6
:10267C001B6A23F480527B681A627B681B6AFB60BE
:10268C007B685B687B617B68DB693B613B6923F43E
:10269C00E0433B613B6923F440733B613B681B683F
:1026AC001B023A6913433B61FB6823F40053FB6044
:1026BC003B689B681B03FA681343FB607B680F4AFB
:1026CC00934209D17B6923F480437B613B685B694E
:1026DC009B017A6913437B617B687A695A607B68DA
:1026EC003A69DA613B685A687B681A647B68FA68F5
:1026FC001A6200BF1C37BD4680BC7047002C0140DD
:10270C0080B487B000AFF860B9607A6000237B6159
:10271C0000233B61FB681B6A3B61FB681B6A23F06F
:10272C000102FB681A62FB689B697B617B6923F081
:10273C00F0037B617B681B017A6913437B613B6906
:10274C0023F00A033B613A69BB6813433B61FB68A6
:10275C007A699A61FB683A691A6200BF1C37BD46F8
:10276C0080BC704780B487B000AFF860B9607A6005
:10277C0000237B6100233B61FB681B6A23F0100282
:10278C00FB681A62FB689B697B61FB681B6A3B6197
:10279C007B6923F470437B617B681B037A69134369
:1027AC007B613B6923F0A0033B61BB681B013A6969
:1027BC0013433B61FB687A699A61FB683A691A6258
:1027CC0000BF1C37BD4680BC704780B485B000AFDD
:1027DC0078600B467B800023FB607B689B68FB600A
:1027EC00FB6823F07003FB607B8843F007039BB20C
:1027FC001A46FB681343FB607B68FA689A6000BF5B
:10280C001437BD4680BC704780B487B000AFF86009
:10281C00B9607A603B6000237B61FB689B687B61DD
:10282C007B6923F47F437B613B681A027B681A4304
:10283C00BB6813437A6913437B61FB687A699A60BE
:10284C0000BF1C37BD4680BC704780B487B000AF5A
:10285C00F860B9607A6000237B610122BB6802FAE0
:10286C0003F37B61FB681A6A7B69DB431A40FB68E4
:10287C001A62FB681A6A7968BB6801FA03F31A4397
:10288C00FB681A6200BF1C37BD4680BC704780B421
:10289C0085B000AF786039600023FB607B6893F8EB
:1028AC003C30012B01D1022344E07B68012283F8E8
:1028BC003C20FB6823F0FF023B68DB681343FB60A2
:1028CC00FB6823F440723B689B681343FB60FB6816
:1028DC0023F480623B685B681343FB60FB6823F462
:1028EC0000623B681B681343FB60FB6823F4805257
:1028FC003B681B691343FB60FB6823F400523B6885
:10290C005B691343FB60FB6823F480423B689B6963
:10291C001343FB60FB6823F400423B689B69134341
:10292C00FB607B681B68FA685A647B68002283F83A
:10293C003C20002318461437BD4680BC704780B439
:10294C0083B000AF786039607B6893F83C30012B22
:10295C0001D1022332E07B68012283F83C207B68A2
:10296C00022283F83D207B681B685A687B681B68D1
:10297C0022F070025A607B681B6859683B681A68C1
:10298C007B681B680A435A607B681B689A687B6883
:10299C001B6822F080029A607B681B6899683B6810
:1029AC005A687B681B680A439A607B68012283F82B
:1029BC003D207B68002283F83C20002318460C370E
:1029CC00BD4680BC704780B483B000AF786000BF58
:1029DC000C37BD4680BC704780B483B000AF7860C4
:1029EC0000BF0C37BD4680BC7047000080B582B07C
:1029FC0000AF78607B681B68B3F1804F03D1044B48
:102A0C001B680448984700BF0837BD4680BD00BF0F
:102A1C00540200202C02002090B585B004AF234B4B
:102A2C009847234B23F00103402219462148224B9F
:102A3C009847204B43F001031A46204B1A60204B59
:102A4C0023F001034FF4007219461E481A4B9847A5
:102A5C001C4B43F001031A461B4B1A6040F6AC5357
:102A6C0002936423019340F2D9430093174B184A05
:102A7C0018491948194CA047194B9847194B9847B6
:102A8C00194B9847194B9847194B984719481A4BAB
:102A9C009847082119481A4B98471A481A4B9847D7
:102AAC00094B1B680C489847FAE700BF4906000819
:102ABC00B1330008580200206D3400085402002085
:102ACC003D3200082C000020480300200AD7233E8A
:102ADC008FC2753ECDCCCC3E2C020020C5310008F7
:102AEC00192B00087D2E0008E52B00086D2C000822
:102AFC00D52D0008080300202D1C0008C80200205A
:102B0C00D51C000898020020D908000880B594B0A4
:102B1C0000AF07F12803282200211846294B9847BB
:102B2C0007F1140300221A605A609A60DA601A6185
:102B3C003B1D00221A605A609A60DA600123BB6266
:102B4C004FF48033FB6200233B630123BB630223FE
:102B5C007B644FF48033BB644FF4E013FB6407F1E8
:102B6C0028031846184B98470346002B01D0174BE7
:102B7C0098470F237B610223BB610023FB614FF459
:102B8C0080633B624FF480637B6207F11403022184
:102B9C0018460F4B98470346002B01D00B4B984718
:102BAC0002237B604FF44043FB603B1D1846094BEE
:102BBC0098470346002B01D0044B984700BF503771
:102BCC00BD4680BD83340008651200081D2F000827
:102BDC00391700085D1A000880B584B000AF3B1DA2
:102BEC0000221A605A609A60184B194A1A60174BE7
:102BFC0000229A60154B0122DA60144B00225A61B4
:102C0C00124B4FF46022DA61104B00225A600F4BCA
:102C1C0001221A610D480F4B98470346002B01D037
:102C2C000D4B984700237B600123BB600123FB60A5
:102C3C003B1D19460548094B98470346002B01D00C
:102C4C00054B984700BF1037BD4680BD9802002049
:102C5C0000240140210700081D2F0008390A000834
:102C6C0080B594B000AF07F1400300221A605A609F
:102C7C009A60DA6007F1380300221A605A6007F193
:102C8C001C0300221A605A609A60DA601A615A6159
:102C9C009A613B4600221A605A609A60DA601A61A7
:102CAC005A619A613E4B3F4A1A603D4B0A225A6068
:102CBC003B4B00229A603A4B40F60F62DA60384B7D
:102CCC0000221A61364B00225A61354B00229A6160
:102CDC003348354B98470346002B01D0334B98476C
:102CEC004FF480533B6407F1400319462C48304B9A
:102CFC0098470346002B01D02C4B984728482D4B66
:102D0C0098470346002B01D0284B98470023BB6300
:102D1C000023FB6307F1380319462148264B9847DB
:102D2C000346002B01D0214B98476023FB61002305
:102D3C003B6200237B620023BB620023FB62002307
:102D4C003B6300237B6307F11C03082219461448DC
:102D5C001A4B98470346002B01D0144B984700237D
:102D6C003B6000237B600023BB600023FB600023DF
:102D7C003B614FF400537B610023BB613B4619461A
:102D8C0007480F4B98470346002B01D0074B984739
:102D9C0003480C4B984700BF5037BD4680BD00BF61
:102DAC00C8020020002C0140CD1B00081D2F00087C
:102DBC00F1200008611C00084B290008551F000871
:102DCC009B2800088130000880B586B000AF07F161
:102DDC00080300221A605A609A60DA603B460022AF
:102DEC001A605A601D4B4FF080421A601B4B0A222E
:102DFC005A601A4B00229A60184B40F60F62DA6048
:102E0C00164B00221A61154B00229A611348144B81
:102E1C0098470346002B01D0124B98474FF4805330
:102E2C00BB6007F1080319460C480F4B9847034643
:102E3C00002B01D00B4B984700233B6000237B6099
:102E4C003B4619460548094B98470346002B01D0D1
:102E5C00044B984700BF1837BD4680BD08030020BF
:102E6C00CD1B00081D2F0008F12000084B2900087D
:102E7C0080B588B000AF07F1100300221A605A60C9
:102E8C009A60DA601E4B9B691D4A43F010039361F4
:102E9C001B4B9B6903F01003FB60FB68184B9B6991
:102EAC00174A43F020039361154B9B6903F02003F1
:102EBC00BB60BB68124B9B69114A43F004039361DE
:102ECC000F4B9B6903F004037B607B6800224FF47B
:102EDC0040710C480C4B98474FF440733B610123F5
:102EEC007B610023BB610223FB6107F110031946D0
:102EFC000448064B984700BF2037BD4680BD00BF35
:102F0C00001002400008014035120008790F00083B
:102F1C0080B400AF00BFBD4680BC704780B485B0A4
:102F2C0000AF154B9B69144A43F001039361124B9C
:102F3C009B6903F00103BB60BB680F4BDB690E4A56
:102F4C0043F08053D3610C4BDB6903F080537B60FF
:102F5C007B680A4B5B68FB60FB6823F0E063FB60FB
:102F6C00FB6843F00073FB60044AFB68536000BFCE
:102F7C001437BD4680BC7047001002400000014071
:102F8C0080B588B000AF786007F1100300221A609A
:102F9C005A609A60DA607B681B68144A934221D1AC
:102FAC00134B9B69124A43F400739361104B9B695A
:102FBC0003F40073FB60FB680D4B9B690C4A43F0F8
:102FCC00040393610A4B9B6903F00403BB60BB6869
:102FDC0001233B6103237B6107F11003194605486C
:102FEC00054B984700BF2037BD4680BD00240140EB
:102FFC000010024000080140790F000880B584B031
:10300C0000AF78607B681B68164A93420CD1164B54
:10301C009B69154A43F400639361134B9B6903F45A
:10302C000063FB60FB6818E07B681B68B3F1804FA2
:10303C0013D10D4BDB690C4A43F00103D3610A4BEE
:10304C00DB6903F00103BB60BB68002200211C207C
:10305C00064B98471C20064B984700BF1037BD46BF
:10306C0080BD00BF002C014000100240F90E00088A
:10307C003D0F000880B588B000AF786007F11003F1
:10308C0000221A605A609A60DA607B681B68104AEA
:10309C00934218D10F4B9B690E4A43F00403936182
:1030AC000C4B9B6903F00403FB60FB684FF48063DB
:1030BC003B6102237B610223FB6107F1100319467C
:1030CC000548064B984700BF2037BD4680BD00BF62
:1030DC00002C01400010024000080140790F00084C
:1030EC0080B400AF00BFBD4680BC704780B400AF59
:1030FC00FEE780B400AFFEE780B400AFFEE780B41B
:10310C0000AFFEE780B400AF00BFBD4680BC704787
:10311C0080B400AF00BFBD4680BC704780B400AF28
:10312C0000BFBD4680BC704780B500AF014B9847CF
:10313C0000BF80BDE906000880B500AF0248034B14
:10314C00984700BF80BD00BF08030020291D000860
:10315C0080B400AF154B1B68144A43F00103136095
:10316C00124B5A681149124B13404B600F4B1B68A2
:10317C000E4A23F0847323F4803313600B4B1B68CB
:10318C000A4A23F480231360084B5B68074A23F434
:10319C00FE035360054B4FF41F029A60054B4FF032
:1031AC0000629A6000BFBD4680BC704700100240B0
:1031BC000000FFF800ED00E080B584B000AFF860CF
:1031CC00B9607A603B60FB68BA681A60FB687A6821
:1031DC005A60FB683A689A60B7F91820134B10468E
:1031EC0098470246FB685A61FB68BA8B9A81FB6868
:1031FC003A8CDA81FB684FF000021A62FB684FF0E0
:10320C000002DA61FB684FF000029A61FB68002251
:10321C005A82FB6800221A82FB68002283F8242061
:10322C00FB6818461037BD4680BD00BFC1020008C0
:10323C0090B583B000AF78607B6893F82430002B96
:10324C0000F09A807B681A8A4D4BDA634D4BDB6C2D
:10325C009AB27B685A824C4B4FF480721A617B682D
:10326C00DA697B681A627B689A697B68DA617B68C9
:10327C005C697B685B8A1A46444B10469847024649
:10328C00434B11462046984703461A467B689A6181
:10329C007B681A687B6899693E4B104698470346D1
:1032AC001C467B681A8A3C4B1046984702463B4B9F
:1032BC0011462046984703461A46394B1046984704
:1032CC0003469AB27B681A827B681A8A324B104684
:1032DC00984704467B685A687B68D9692D4B104621
:1032EC00984703461A462A4B1146204698470346F0
:1032FC001A462B4B1046984703469AB27B681A82A3
:10330C007B689A687B68196A224B1046984703467B
:10331C001C467B681A8A204B1046984702461F4B66
:10332C0011462046984703461A461D4B10469847AF
:10333C0003469AB27B681A827B681A8A7B68DB899F
:10334C009A4203D97B68DA897B681A827B681A8A6D
:10335C007B689B899A4203D27B689A897B681A8224
:10336C007B68002283F82420074B4FF080721A618F
:10337C00054B4FF000721A6100BF0C37BD4690BD73
:10338C00002C01400024014000080140C10200084B
:10339C005501000869030008B9020008590100082A
:1033AC000906000880B483B000AF7860064B4FF478
:1033BC0000721A617B68012283F8242000BF0C374D
:1033CC00BD4680BC704700BF00080140002103E0EF
:1033DC000B4B5B58435004310A480B4B42189A4232
:1033EC00F6D30A4A02E0002342F8043B084B9A4207
:1033FC00F9D3FFF7ADFE00F00FF8FFF70DFB7047A8
:10340C00E0340008000000200C0000200C0000201C
:10341C004C030020FEE7000070B500250C4E0D4C4F
:10342C00A41BA410A54209D100F02EF800250A4EC9
:10343C000A4CA41BA410A54205D170BD56F825302A
:10344C0098470135EEE756F8253098470135F2E7F5
:10345C00D8340008D8340008D8340008DC3400080C
:10346C0010B5431E0A44914200D110BD11F8014B16
:10347C0003F8014FF7E703460244934200D170472B
:10348C0003F8011BF9E70000F8B500BFF8BC08BC55
:10349C009E467047F8B500BFF8BC08BC9E46704706
:1034AC0002030405060708090A0B0C0D0E0F101079
:1034BC0001020000000000000000000001020304F3
:0C34CC00060708090000000001020304CC
:0434D80031010008B6
:0434DC000D010008D6
:0C34E000100000000100000000A24A04DF
:04000005080033D9E3
:00000001FF
