:020000040800F2
:1000000000000220E5B2000829A6000837A6000873
:100010003DA6000843A6000849A60008000000000D
:100020000000000000000000000000004FA60008D3
:100030005DA60008000000006BA6000879A6000875
:1000400035B3000835B3000835B3000835B30008F0
:1000500035B3000835B3000835B3000835B30008E0
:1000600035B3000835B3000835B3000835B30008D0
:1000700035B3000835B3000835B3000835B30008C0
:1000800035B3000835B3000835B3000835B30008B0
:1000900035B3000835B3000835B3000835B30008A0
:1000A00035B3000835B3000835B3000835B3000890
:1000B00085A6000835B3000835B3000835B300083D
:1000C00035B3000835B3000835B3000835B3000870
:1000D00035B3000835B3000835B3000835B3000860
:1000E00035B3000835B3000835B3000835B3000850
:1000F00035B3000835B3000835B3000835B3000840
:1001000035B3000835B3000835B3000835B300082F
:1001100035B3000835B3000835B3000835B300081F
:1001200035B3000835B3000835B3000835B300080F
:1001300035B3000835B3000835B3000835B30008FF
:1001400035B3000835B3000835B3000835B30008EF
:1001500035B3000835B3000835B3000835B30008DF
:1001600035B3000835B3000835B3000835B30008CF
:1001700035B3000835B3000835B3000800000000AF
:0801800035B3000835B3000897
:1001880010B5054C237833B9044B13B10448AFF3C9
:1001980000800123237010BD0C0000200000000027
:1001A80090B3000808B5034B1BB103490348AFF3EC
:1001B800008008BD000000001000002090B3000877
:1001C80080B500AF0E4B1B680D4A43F400731360F3
:1001D8000B4B1B680A4A43F480631360084B1B6887
:1001E800074A43F480731360032002F08FFA00205B
:1001F80000F042F80AF04AF80023184680BD00BF14
:10020800003C024080B500AF134B4FF0FF321A623A
:10021800114B00221A62104B4FF0FF325A620E4BFC
:1002280000225A620C4B4FF0FF321A610A4B00222F
:100238001A61094B4FF0FF325A61074B00225A618D
:10024800054B4FF0FF329A61034B00229A6100F090
:100258000CF80023184680BD0038024080B400AF77
:1002680000BFBD465DF8047B704780B400AF00BF97
:10027800BD465DF8047B704780B582B000AF7860FA
:10028800124B1A68124B1B7819464FF47A73B3FB5A
:10029800F1F3B2FBF3F3184602F081FA0346002BA0
:1002A80001D001230EE07B680F2B0AD80022796861
:1002B8004FF0FF3002F035FA064A7B6813600023DE
:1002C80000E0012318460837BD4680BD080000201D
:1002D800040000200000002080B400AF064B1B780B
:1002E8001A46064B1B681344044A136000BFBD46F8
:1002F8005DF8047B704700BF040000202800002040
:1003080080B400AF034B1B681846BD465DF8047BFC
:10031800704700BF2800002080B400AF034B1B6863
:100328001846BD465DF8047B704700BF00000020FA
:1003380080B584B000AF0346FB710023FB730A4B02
:100348001B78FA799A4209D0074AFB791370074B50
:100358001B681846FFF790FF0346FB73FB7B1846A4
:100368001037BD4680BD00BF0400002000000020FB
:1003780080B400AF034B1B781846BD465DF8047B7C
:10038800704700BF0400002080B584B000AF7860DB
:10039800FFF7B6FFB8607B68FB60FB68B3F1FF3F0F
:1003A80005D0094B1B781A46FB681344FB6000BF55
:1003B800FFF7A6FF0246BB68D31AFA689A42F7D835
:1003C80000BF1037BD4680BD0400002080B400AFD8
:1003D800054B1B68044A23F00203136000BFBD46A7
:1003E8005DF8047B704700BF10E000E080B400AF08
:1003F800054B1B68044A43F00203136000BFBD4667
:100408005DF8047B704700BF10E000E080B400AFE7
:10041800024B1846BD465DF8047B7047000407018F
:1004280080B400AF034B1B681B0C1846BD465DF833
:10043800047B7047002004E080B400AF044B1B68C5
:10044800C3F30B031846BD465DF8047B704700BF35
:10045800002004E080B400AF054B5B68044A43F019
:100468000103536000BFBD465DF8047B704700BFC1
:10047800002004E080B400AF054B5B68044A23F019
:100488000103536000BFBD465DF8047B704700BFA1
:10049800002004E080B400AF054B5B68044A43F0D9
:1004A8000203536000BFBD465DF8047B704700BF80
:1004B800002004E080B400AF054B5B68044A23F0D9
:1004C8000203536000BFBD465DF8047B704700BF60
:1004D800002004E080B400AF054B5B68044A43F099
:1004E8000403536000BFBD465DF8047B704700BF3E
:1004F800002004E080B400AF054B5B68044A23F099
:100508000403536000BFBD465DF8047B704700BF1D
:10051800002004E080B400AF034B01221A6000BF42
:10052800BD465DF8047B70470004274280B400AFE5
:10053800034B00221A6000BFBD465DF8047B70477C
:100548000004274280B483B000AF7860094B1A6872
:100558007B681A60084A7B68043312681A60074A85
:100568007B68083312681A6000BF0C37BD465DF817
:10057800047B7047107AFF1F147AFF1F187AFF1F39
:1005880080B584B000AF78600023FB737B68002BD4
:1005980001D1012333E07B681B6C002B09D17B68F8
:1005A80000225A647B68002283F83C20786809F0AE
:1005B80095FE7B681B6C03F01003002B18D17B6839
:1005C8001B6C23F4885323F0020343F002027B6878
:1005D8001A64786800F024FF7B6800225A647B68FC
:1005E8001B6C23F0030343F001027B681A6401E0EB
:1005F8000123FB737B68002283F83C20FB7B1846B1
:100608001037BD4680BD80B584B000AF7860002348
:10061800FB737B68002B01D1012322E07B681B6CF4
:1006280043F002027B681A647B681B689A687B68DF
:100638001B6822F001029A607B681B689B6803F0C4
:100648000103002B08D1786809F0BCFE7B68002202
:100658005A647B6800221A647B68002283F83C2075
:10066800FB7B18461037BD4680BD80B483B000AF11
:10067800786000BF0C37BD465DF8047B704780B4D6
:1006880083B000AF786000BF0C37BD465DF8047BCF
:10069800704780B485B000AF78600023BB607B688A
:1006A80093F83C30012B01D1022389E07B680122B9
:1006B80083F83C207B681B689B6803F00103012BCF
:1006C80018D07B681B689A687B681B6842F0010237
:1006D8009A603E4B1B683E4AA2FB03239A0C1346C2
:1006E8005B001344BB6002E0BB68013BBB60BB68B6
:1006F800002BF9D17B681B689B6803F00103002B72
:100708005DD07B681B6C23F4E06323F0010343F4A2
:1007180080727B681A647B681B685B6803F480637B
:10072800002B07D07B681B6C23F4405343F48052A2
:100738007B681A647B681B6C03F48053002B06D01B
:100748007B685B6C23F006027B685A6402E07B6876
:1007580000225A647B68002283F83C201D4BFB6012
:100768007B681B686FF022021A60FB685B6803F005
:100778001F03002B0FD17B681B689B6803F0405355
:10078800002B1CD17B681B689A687B681B6842F049
:1007980080429A6013E07B681B680F4A93420ED12F
:1007A8007B681B689B6803F04053002B07D17B686C
:1007B8001B689A687B681B6842F080429A60002335
:1007C80018461437BD465DF8047B704708000020C2
:1007D80083DE1B43002301400020014080B483B026
:1007E80000AF78607B6893F83C30012B01D102237D
:1007F80021E07B68012283F83C207B681B689A68AB
:100808007B681B6822F001029A607B681B689B6802
:1008180003F00103002B09D17B681B6C23F4885378
:1008280023F0010343F001027B681A647B6800220D
:1008380083F83C20002318460C37BD465DF8047B3E
:10084800704780B584B000AF786039600023FB60E2
:100858007B681B689B6803F48063002B12D07B685D
:100868001B689B6803F48073002B0BD07B681B6CA0
:1008780043F020027B681A647B68002283F83C20DE
:1008880001235CE0FFF73CFDF8601AE03B68B3F138
:10089800FF3F16D03B68002B07D0FFF731FD02461B
:1008A800FB68D31A3A689A420BD27B681B6C43F0F8
:1008B80004027B681A647B68002283F83C200323C7
:1008C8003DE07B681B681B6803F00203022BDDD147
:1008D8007B681B686FF012021A607B681B6C43F41C
:1008E80000727B681A647B681B689B6803F040533E
:1008F800002B23D17B689B69002B1FD17B681B6869
:10090800DB6A03F47003002B06D07B681B689B68C6
:1009180003F48063002B11D17B681B6C23F4807275
:100928007B681A647B681B6C03F48053002B05D129
:100938007B681B6C43F001027B681A64002318462D
:100948001037BD4680BD80B586B000AFF860B9608D
:100958007A6000237B61FFF7D3FC78611AE07B683B
:10096800B3F1FF3F16D07B68002B07D0FFF7C8FC18
:1009780002467B69D31A7A689A420BD2FB681B6CD1
:1009880043F00402FB681A64FB68002283F83C20E9
:10099800032328E0FB681B681A68BB681340BA6821
:1009A8009A42DCD1BB68012B0BD1FB681B6C43F46A
:1009B8008032FB681A64FB681B686FF001021A60DA
:1009C80010E0FB681B6C43F48062FB681A64FB68E8
:1009D8005B6C43F00202FB685A64FB681B686FF0AB
:1009E80020021A60002318461837BD4680BD80B41F
:1009F80085B000AF78600023BB607B6893F83C301B
:100A0800012B01D1022393E07B68012283F83C206B
:100A18007B681B689B6803F00103012B18D07B6877
:100A28001B689A687B681B6842F001029A60434B16
:100A38001B68434AA2FB03239A0C13465B0013442A
:100A4800BB6002E0BB68013BBB60BB68002BF9D10F
:100A58007B681B689B6803F00103002B67D07B68E9
:100A68001B6C23F4E06323F0010343F480727B687A
:100A78001A647B681B685B6803F48063002B07D0EB
:100A88007B681B6C23F4405343F480527B681A64E0
:100A98007B681B6C03F48053002B06D07B685B6C6F
:100AA80023F006027B685A6402E07B6800225A64DD
:100AB8007B68002283F83C20224BFB607B681B6824
:100AC8006FF022021A607B681B685B687A6812689C
:100AD80043F0806343F020035360FB685B6803F0D6
:100AE8001F03002B0FD17B681B689B6803F04053E2
:100AF800002B1CD17B681B689A687B681B6842F0D6
:100B080080429A6013E07B681B680F4A93420ED1BB
:100B18007B681B689B6803F04053002B07D17B68F8
:100B28001B689A687B681B6842F080429A600023C1
:100B380018461437BD465DF8047B7047080000204E
:100B480083DE1B43002301400020014080B483B0B2
:100B580000AF78607B6893F83C30012B01D1022309
:100B68002BE07B68012283F83C207B681B689A682D
:100B78007B681B6822F001029A607B681B689B688F
:100B880003F00103002B13D17B681B685B687A684C
:100B9800126823F0806323F0200353607B681B6C8A
:100BA80023F4885323F0010343F001027B681A649D
:100BB8007B68002283F83C20002318460C37BD468A
:100BC8005DF8047B704780B584B000AF786000237F
:100BD800FB600023BB607B681B681B6803F0020393
:100BE800022B0CBF01230023DBB2FB607B681B6870
:100BF8005B6803F02003202B0CBF01230023DBB22A
:100C0800BB60FB68002B49D0BB68002B46D07B68D3
:100C18001B6C03F01003002B05D17B681B6C43F49D
:100C280000727B681A647B681B689B6803F04053FA
:100C3800002B2BD17B689B69002B27D17B681B6815
:100C4800DB6A03F47003002B06D07B681B689B6883
:100C580003F48063002B19D17B681B685A687B6892
:100C68001B6822F020025A607B681B6C23F4807298
:100C78007B681A647B681B6C03F48053002B05D1D6
:100C88007B681B6C43F001027B681A64786800F08B
:100C980004FA7B681B686FF012021A607B681B6895
:100CA8001B6803F00403042B0CBF01230023DBB2F1
:100CB800FB607B681B685B6803F08003802B0CBFBC
:100CC80001230023DBB2BB60FB68002B57D0BB6855
:100CD800002B54D07B681B6C03F01003002B05D14C
:100CE8007B681B6C43F400527B681A647B681B6842
:100CF8009B6803F44013002B39D17B681B689B6BFE
:100D080003F44013002B06D07B681B689B6803F430
:100D18008063002B2BD17B681B685B6803F48063BE
:100D2800002B24D17B681B689B6803F04053002B81
:100D38001DD17B689B69002B19D17B681B685A6899
:100D48007B681B6822F080025A607B681B6C23F466
:100D580080527B681A647B681B6C03F48073002BD9
:100D680005D17B681B6C43F001027B681A647868C4
:100D780001F0ACF87B681B686FF00C021A607B68A6
:100D88001B681B6803F00103012B0CBF0123002320
:100D9800DBB2FB607B681B685B6803F04003402B99
:100DA8000CBF01230023DBB2BB60FB68002B17D00C
:100DB800BB68002B14D07B681B681B6803F0010319
:100DC800012B0DD17B681B6C43F480327B681A645D
:100DD800786800F076F97B681B686FF001021A608A
:100DE8007B681B681B6803F02003202B0CBF0123C2
:100DF8000023DBB2FB607B681B685B6803F08063E1
:100E0800B3F1806F0CBF01230023DBB2BB60FB682A
:100E1800002B15D0BB68002B12D07B685B6C43F0AD
:100E280002027B685A647B681B686FF020021A60B4
:100E3800786800F050F97B681B686FF020021A6030
:100E480000BF1037BD4680BD80B586B000AFF860E2
:100E5800B9607A6000233B61FB6893F83C30012B52
:100E680001D10223B0E0FB68012283F83C20FB6833
:100E78001B689B6803F00103012B18D0FB681B68F3
:100E88009A68FB681B6842F001029A60504B1B6825
:100E9800504AA2FB03239A0C13465B0013443B61A0
:100EA80002E03B69013B3B613B69002BF9D1FB68E0
:100EB8001B689B6803F00103002B00F08480FB682B
:100EC8001B6C23F4E06323F0010343F48072FB6896
:100ED8001A64FB681B685B6803F48063002B07D007
:100EE800FB681B6C23F4405343F48052FB681A647C
:100EF800FB681B6C03F48053002B06D0FB685B6C0B
:100F080023F00602FB685A6402E0FB6800225A6478
:100F1800FB68002283F83C202F4B7B61FB689B6BAE
:100F28002E4ADA63FB689B6B2D4A1A64FB689B6B3D
:100F38002C4ADA64FB681B686FF022021A60FB68AF
:100F48001B685A68FB681B6842F080625A60FB683D
:100F58001B689A68FB681B6842F480729A60FB6899
:100F6800986BFB681B684C331946BA687B6801F0BC
:100F780052FE7B695B6803F01F03002B0FD1FB68EF
:100F88001B689B6803F04053002B1CD1FB681B684F
:100F98009A68FB681B6842F080429A6013E0FB681D
:100FA8001B68114A93420ED1FB681B689B6803F0CB
:100FB8004053002B07D1FB681B689A68FB681B68C5
:100FC80042F080429A60002318461837BD4680BD1B
:100FD8000800002083DE1B43002301401D16000883
:100FE800C3160008DF1600080020014080B584B051
:100FF80000AF78600023FB737B6893F83C30012BCB
:1010080001D1022338E07B68012283F83C207B6809
:101018001B689A687B681B6822F001029A607B68EB
:101028001B689B6803F00103002B20D17B681B68B9
:101038009A687B681B6822F480729A607B689B6B55
:10104800184601F048FE0346FB737B681B685A6824
:101058007B681B6822F080625A607B681B6C23F4F3
:10106800885323F0010343F001027B681A647B680C
:10107800002283F83C20FB7B18461037BD4680BD14
:1010880080B483B000AF78607B681B68DB6C18465F
:101098000C37BD465DF8047B704780B483B000AF61
:1010A800786000BF0C37BD465DF8047B704780B49C
:1010B80083B000AF786000BF0C37BD465DF8047B95
:1010C800704780B483B000AF786000BF0C37BD466E
:1010D8005DF8047B704780B483B000AF786000BFD0
:1010E8000C37BD465DF8047B704780B485B000AF0F
:1010F800786039600023BB607B6893F83C30012B33
:1011080001D1022305E17B68012283F83C203B687A
:101118001B68092B25D97B681B68D9683B681B6845
:101128009BB21A4613465B0013441E3B072202FA81
:1011380003F3DA437B681B680A40DA607B681B6844
:10114800D9683B689A683B681B689BB21846034697
:101158005B0003441E3B9A407B681B680A43DA60C5
:1011680022E07B681B6819693B681B689BB21A46BA
:1011780013465B001344072202FA03F3DA437B6841
:101188001B680A401A617B681B6819693B689A6882
:101198003B681B689BB2184603465B0003449A40B1
:1011A8007B681B680A431A613B685B68062B24D876
:1011B8007B681B68596B3B685A6813469B0013444D
:1011C800053B1F2202FA03F3DA437B681B680A40D7
:1011D8005A637B681B68596B3B681B689BB218464F
:1011E8003B685A6813469B001344053B00FA03F218
:1011F8007B681B680A435A634CE03B685B680C2BAE
:1012080024D87B681B68196B3B685A6813469B0097
:101218001344233B1F2202FA03F3DA437B681B685B
:101228000A401A637B681B68196B3B681B689BB292
:1012380018463B685A6813469B001344233B00FA40
:1012480003F27B681B680A431A6323E07B681B6808
:10125800D96A3B685A6813469B001344413B1F22D6
:1012680002FA03F3DA437B681B680A40DA627B6898
:101278001B68D96A3B681B689BB218463B685A686A
:1012880013469B001344413B00FA03F27B681B683A
:101298000A43DA62224BFB607B681B68214A93424F
:1012A80009D13B681B68122B05D1FB685B6843F4C6
:1012B8008002FB685A607B681B681A4A934223D1F4
:1012C8003B681B68102B03D03B681B68112B1BD194
:1012D800FB685B6843F40002FB685A603B681B6864
:1012E800102B11D1104B1B68104AA2FB03239A0C38
:1012F80013469B0013445B00BB6002E0BB68013BE4
:10130800BB60BB68002BF9D17B68002283F83C20C6
:10131800002318461437BD465DF8047B704700BFAC
:1013280000230140002001400800002083DE1B4309
:1013380080B483B000AF786039607B6893F83C3044
:10134800012B01D102234DE07B68012283F83C2068
:101358003B681B69012B08D17B681B685A687B684E
:101368001B6842F040025A6007E07B681B685A68B5
:101378007B681B6822F040025A607B681B685B68C8
:101388007A68126823F4400323F4007353607B687F
:101398001B6859683B681A687B681B680A435A606F
:1013A8007B681B683A6852685A627B681B683A68AF
:1013B80092689A627B681B685A687B681B6822F08F
:1013C8001F025A607B681B685A683B68DB689BB2DF
:1013D80019467B681B680A435A607B68002283F8B9
:1013E8003C20002318460C37BD465DF8047B704747
:1013F80080B483B000AF78607B681B6C18460C37EC
:10140800BD465DF8047B704780B483B000AF786058
:101418007B685B6C18460C37BD465DF8047B7047EB
:1014280080B485B000AF7860784BFB60FB685B6880
:1014380023F44032FB685A60FB685A687B685B6833
:101448001A43FB685A607B681B685A687B681B688C
:1014580022F480725A607B681B6859687B681B6934
:101468001A027B681B680A435A607B681B685A68C3
:101478007B681B6822F040725A607B681B68596859
:101488007B689A687B681B680A435A607B681B689C
:101498009A687B681B6822F400629A607B681B6804
:1014A80099687B68DA687B681B680A439A607B687E
:1014B8009B6A574A934222D07B681B689A687B686C
:1014C8001B6822F070629A607B681B6899687B6869
:1014D8009A6A7B681B680A439A607B681B689A68EB
:1014E8007B681B6822F040529A607B681B68996889
:1014F8007B68DA6A7B681B680A439A600FE07B683E
:101508001B689A687B681B6822F070629A607B6827
:101518001B689A687B681B6822F040529A607B6857
:101528001B689A687B681B6822F002029A607B68D5
:101538001B6899687B689B695A007B681B680A432B
:101548009A607B681B6A002B1BD07B681B685A68F3
:101558007B681B6842F400625A607B681B685A68A3
:101568007B681B6822F460425A607B681B68596874
:101578007B685B6A013B5A037B681B680A435A60B5
:1015880007E07B681B685A687B681B6822F4006266
:101598005A607B681B68DA6A7B681B6822F47002F1
:1015A800DA627B681B68D96A7B68DB69013B1A05CC
:1015B8007B681B680A43DA627B681B689A687B68E9
:1015C8001B6822F400729A607B681B6899687B68C4
:1015D8001B6B5A027B681B680A439A607B681B680E
:1015E8009A687B681B6822F480629A607B681B6833
:1015F80099687B685B699A027B681B680A439A60F2
:1016080000BF1437BD465DF8047B704700230140D6
:101618000100000F80B584B000AF78607B689B6BD9
:10162800FB60FB681B6C03F05003002B3CD1FB688C
:101638001B6C43F40072FB681A64FB681B689B68A8
:1016480003F04053002B2BD1FB689B69002B27D15B
:10165800FB681B68DB6A03F47003002B06D0FB6889
:101668001B689B6803F48063002B19D1FB681B6817
:101678005A68FB681B6822F020025A60FB681B6CE2
:1016880023F48072FB681A64FB681B6C03F48053B4
:10169800002B05D1FB681B6C43F00102FB681A6440
:1016A800F868FFF7FAFC04E0FB689B6BDB6C786872
:1016B800984700BF1037BD4680BD80B584B000AFE5
:1016C80078607B689B6BFB60F868FFF7F0FC00BFF5
:1016D8001037BD4680BD80B584B000AF78607B68A8
:1016E8009B6BFB60FB6840221A64FB685B6C43F0F1
:1016F8000402FB685A64F868FFF7EDFC00BF103776
:10170800BD4680BD80B487B000AF78600023BB6061
:1017180000237B6100233B617B6893F83C30012BFD
:1017280001D102239DE07B68012283F83C207B687D
:101738001B689B6803F00103012B18D07B681B68AA
:101748009A687B681B6842F001029A60484B1B68E4
:10175800484AA2FB03239A0C13465B001344BB6060
:1017680002E0BB68013BBB60BB68002BF9D17B681A
:101778001B689B6803F00103002B71D07B681B6C0E
:1017880023F4405323F0010343F480527B681A6426
:101798007B681B6C03F48073002B02D17B680022EA
:1017A8005A647B68002283F83C207B681B686FF0D2
:1017B80004021A60304BFB60FB685B6803F01F0390
:1017C800002B24D17B681B689B6803F44013002B13
:1017D8000CBF01230023DBB27B617B681B685B685D
:1017E80003F48063002B0CBF01230023DBB23B61B1
:1017F8007B69002B34D03B69002B31D07B681B6898
:101808009A687B681B6842F480029A6028E07B68CB
:101818001B689B6803F44013002B0CBF01230023B3
:10182800DBB27B617B681B685B6803F48063002B19
:101838000CBF01230023DBB23B617B681B680F4AA6
:1018480093420DD17B69002B0AD03B69002B07D04E
:101858007B681B689A687B681B6842F480029A6000
:10186800002318461C37BD465DF8047B704700BF4F
:101878000800002083DE1B430023014000200140B4
:1018880080B487B000AF78600023BB6000237B6121
:1018980000233B617B6893F83C30012B01D1022384
:1018A800A5E07B68012283F83C207B681B689B6865
:1018B80003F00103012B18D07B681B689A687B68CA
:1018C8001B6842F001029A604C4B1B684C4AA2FB11
:1018D80003239A0C13465B001344BB6002E0BB6809
:1018E800013BBB60BB68002BF9D17B681B689B6818
:1018F80003F00103002B79D07B681B6C23F4405361
:1019080023F0010343F480527B681A647B681B6CE4
:1019180003F48073002B02D17B6800225A647B6831
:10192800002283F83C207B681B686FF004021A6071
:101938007B681B685A687B681B6842F080025A60A3
:10194800304BFB60FB685B6803F01F03002B24D15E
:101958007B681B689B6803F44013002B0CBF0123B2
:101968000023DBB27B617B681B685B6803F48063E0
:10197800002B0CBF01230023DBB23B617B69002BEA
:1019880034D03B69002B31D07B681B689A687B6830
:101998001B6842F480029A6028E07B681B689B6899
:1019A80003F44013002B0CBF01230023DBB27B613F
:1019B8007B681B685B6803F48063002B0CBF012302
:1019C8000023DBB23B617B681B680F4A93420DD151
:1019D8007B69002B0AD03B69002B07D07B681B680A
:1019E8009A687B681B6842F480029A600023184654
:1019F8001C37BD465DF8047B704700BF0800002017
:101A080083DE1B43002301400020014080B485B0E1
:101A180000AF78600023FB737B6893F83C30012BA0
:101A280001D1022337E07B68012283F83C207B68E0
:101A38001B6C03F48073002B20D17B681B685B68E8
:101A480003F48063002B19D17B681B689A687B6854
:101A58001B6822F001029A607B681B689B6803F090
:101A68000103002B12D17B681B6C23F4885323F0ED
:101A7800010343F001027B681A6407E07B681B6C72
:101A880043F020027B681A640123FB737B68002201
:101A980083F83C20FB7B18461437BD465DF8047B71
:101AA800704780B584B000AF786039600023FB6070
:101AB800FEF726FCF86017E03B68B3F1FF3F13D050
:101AC8003B68002B07D0FEF71BFC0246FB68D31AC5
:101AD8003A689A4208D27B6804221A647B6800221A
:101AE80083F83C2003234BE07B681B681B6803F0EA
:101AF8000403042BE0D17B681B686FF00C021A60AA
:101B08007B681B6C43F400527B681A647B681B6813
:101B18009B6803F44013002B31D17B681B689B6BD7
:101B280003F44013002B06D07B681B689B6803F402
:101B38008063002B23D17B681B685B6803F4806398
:101B4800002B1CD17B681B689B6803F04053002B5B
:101B580015D17B689B69002B11D17B681B6C23F422
:101B680080527B681A647B681B6C03F48073002BBB
:101B780005D17B681B6C43F001027B681A64002363
:101B880018461037BD4680BD80B485B000AF786078
:101B98000023FB737B6893F83C30012B01D10223AF
:101BA8003FE07B68012283F83C207B681B6C03F4D0
:101BB8008073002B28D17B681B685B6803F4806303
:101BC800002B21D17B681B689A687B681B6822F010
:101BD80001029A607B681B689B6803F00103002B75
:101BE8001AD17B681B685A687B681B6822F08002E0
:101BF8005A607B681B6C23F4885323F0010343F07D
:101C080001027B681A6407E07B681B6C43F02002C2
:101C18007B681A640123FB737B68002283F83C20ED
:101C2800FB7B18461437BD465DF8047B704780B4CB
:101C380085B000AF786039600023FB607B681B6863
:101C48006FF004021A603B68013B032B1ED801A207
:101C580052F823F08B1C0008811C0008771C000830
:101C68006D1C00087B681B689B6CFB600FE07B6841
:101C78001B685B6CFB600AE07B681B681B6CFB6085
:101C880005E07B681B68DB6BFB6000E000BFFB685E
:101C980018461437BD465DF8047B704780B586B09A
:101CA80000AFF860B9607A6000233B61FB6893F885
:101CB8003C30012B01D102239CE0FB68012283F810
:101CC8003C20FB681B689B6803F00103012B18D0BC
:101CD800FB681B689A68FB681B6842F001029A60FF
:101CE800464B1B68464AA2FB03239A0C13465B002B
:101CF80013443B6102E03B69013B3B613B69002BBC
:101D0800F9D1FB681B689B6803F00103002B70D0B6
:101D1800FB681B6C23F4E06323F0010343F4807237
:101D2800FB681A64FB681B685B6803F48063002B1C
:101D380007D0FB681B6C23F4405343F48052FB68C4
:101D48001A64FB681B6C03F48053002B06D0FB68F5
:101D58005B6C23F00602FB685A6402E0FB68002211
:101D68005A64FB68002283F83C20FB689B6B254A79
:101D7800DA63FB689B6B244A1A64FB689B6B234AF3
:101D8800DA64FB681B686FF002021A60FB681B6864
:101D98005A68FB681B6842F080625A601C4B7B6182
:101DA800FB681B6B002B06D07B695B6843F4005211
:101DB8007B695A6005E07B695B6823F400527B69A4
:101DC8005A60FB68986B7B6908331946BA687B6868
:101DD80000F021FFFB681B689B6803F04053002B51
:101DE80007D1FB681B689A68FB681B6842F0804251
:101DF8009A60002318461837BD4680BD08000020A9
:101E080083DE1B439D220008432300085F2300084C
:101E18000023014080B584B000AF78600023FB73D5
:101E28007B6893F83C30012B01D1022338E07B68B2
:101E3800012283F83C207B681B689A687B681B68D2
:101E480022F001029A60184BBB607B681B689B6894
:101E580003F00103002B1ED1BB685B6823F400521A
:101E6800BB685A607B689B6B184600F034FF0346DA
:101E7800FB737B681B685A687B681B6822F080626A
:101E88005A607B681B6C23F4885323F0010343F0EA
:101E980001027B681A647B68002283F83C20FB7B84
:101EA80018461037BD4680BD0023014080B485B078
:101EB80000AF7860044BFB60FB689B6818461437DA
:101EC800BD465DF8047B70470023014080B483B0B1
:101ED80000AF786000BF0C37BD465DF8047B7047E3
:101EE80080B485B000AF786039607B6893F83C3087
:101EF800012B01D102237AE17B68012283F83C207F
:101F08003B681B68092B25D97B681B68D9683B6827
:101F18001B689BB21A4613465B0013441E3B0722FC
:101F280002FA03F3DA437B681B680A40DA607B68CD
:101F38001B68D9683B689A683B681B689BB218465F
:101F480003465B0003441E3B9A407B681B680A43B8
:101F5800DA6022E07B681B6819693B681B689BB2E2
:101F68001A4613465B001344072202FA03F3DA43C6
:101F78007B681B680A401A617B681B6819693B68A3
:101F88009A683B681B689BB2184603465B0003448B
:101F98009A407B681B680A431A617B681B689A6BC6
:101FA8007B681B6822F440129A637B681B68996BF4
:101FB8003B681B69013B1A057B681B680A439A63E7
:101FC8007B681B68996B3B685B68DAB23B681B6986
:101FD800DBB2D31ADBB20333DBB21A4613469B00DB
:101FE80013441F2202FA03F3DA437B681B680A4092
:101FF8009A637B681B68996B3B681B689BB21846A1
:102008003B685B68DAB23B681B69DBB2D31ADBB2A8
:102018000333DBB21A4613469B00134400FA03F25B
:102028007B681B680A439A633B68DB69734A93427F
:1020380022D07B681B689A687B681B6822F4702230
:102048009A607B681B6899683B68DA697B681B68DB
:102058000A439A607B681B689A687B681B6822F44D
:1020680040129A607B681B6899683B681A6A7B68AB
:102078001B680A439A600FE07B681B689A687B6854
:102088001B6822F470229A607B681B689A687B68D8
:102098001B6822F440129A603B689B69002B08D0A9
:1020A8007B681B685A687B681B6842F480625A60C8
:1020B80007E07B681B685A687B681B6822F48062AB
:1020C8005A603B685B69002B08D07B681B685A68BC
:1020D8007B681B6842F480525A6007E07B681B6883
:1020E8005A687B681B6822F480525A603B685B68B8
:1020F800022B17D0032B29D0012B3BD17B681B68FF
:102108005B697A68126823F47F6323F00F035361D5
:102118007B681B6859693B68DA687B681B680A43F7
:102128005A613BE07B681B689B697A68126823F4F4
:102138007F6323F00F0393617B681B6899693B6891
:10214800DA687B681B680A439A6127E07B681B682A
:10215800DB697A68126823F47F6323F00F03D36185
:102168007B681B68D9693B68DA687B681B680A4327
:10217800DA6113E07B681B681B6A7A68126823F4CB
:102188007F6323F00F0313627B681B68196A3B683F
:10219800DA687B681B680A431A6200BF184BFB6049
:1021A8007B681B68174A934209D13B681B68122B4E
:1021B80005D1FB685B6843F48002FB685A607B6862
:1021C8001B68104A93420DD13B681B68102B03D043
:1021D8003B681B68112B05D1FB685B6843F4000260
:1021E800FB685A607B68002283F83C20002318466D
:1021F8001437BD465DF8047B704700BF01000F002F
:10220800002301400020014080B485B000AF786011
:1022180039607B6893F83C30012B01D1022331E00F
:102228007B68012283F83C20194BFB60FB685B68E4
:1022380023F01F02FB685A60FB685A683B681B68FA
:102248001A43FB685A60FB685B6823F44042FB68EA
:102258005A60FB685A683B685B681A43FB685A60B7
:10226800FB685B6823F47062FB685A60FB685A6815
:102278003B689B681A43FB685A607B68002283F8B6
:102288003C20002318461437BD465DF8047B704790
:102298000023014080B584B000AF78607B689B6BF9
:1022A800FB60FB681B6C03F05003002B3CD1FB6800
:1022B8001B6C43F40072FB681A64FB681B689B681C
:1022C80003F04053002B2BD1FB689B69002B27D1CF
:1022D800FB681B68DB6A03F47003002B06D0FB68FD
:1022E8001B689B6803F48063002B19D1FB681B688B
:1022F8005A68FB681B6822F020025A60FB681B6C56
:1023080023F48072FB681A64FB681B6C03F4805327
:10231800002B05D1FB681B6C43F00102FB681A64B3
:10232800F868FEF7BAFE04E0FB689B6BDB6C786824
:10233800984700BF1037BD4680BD80B584B000AF58
:1023480078607B689B6BFB60F868FEF7B0FE00BFA7
:102358001037BD4680BD80B584B000AF78607B681B
:102368009B6BFB60FB6840221A64FB685B6C43F064
:102378000402FB685A64F868FEF7ADFE00BF103728
:10238800BD4680BD80B485B000AF78607B6803F03F
:102398000703FB600C4BDB68BB60BA684FF6FF03B2
:1023A8001340BB60FB681A02BB68134343F0BF636A
:1023B80043F40033BB60044ABB68D36000BF1437E2
:1023C800BD465DF8047B704700ED00E080B400AFC7
:1023D800044BDB681B0A03F007031846BD465DF88B
:1023E800047B704700ED00E080B483B000AF034683
:1023F800FB71FB7903F01F02074997F907305B0966
:10240800012000FA02F241F8232000BF0C37BD4634
:102418005DF8047B704700BF00E100E080B483B042
:1024280000AF0346FB71FB7903F01F02074997F9D8
:1024380007305B09012000FA02F2203341F823201B
:1024480000BF0C37BD465DF8047B704700E100E033
:1024580080B483B000AF0346FB710A4A97F907308E
:102468005B09403352F82320FB7903F01F0322FA5B
:1024780003F303F0010318460C37BD465DF8047BEF
:10248800704700BF00E100E080B483B000AF0346AE
:10249800FB71FB7903F01F02074997F907305B09C5
:1024A800012000FA02F2403341F8232000BF0C3724
:1024B800BD465DF8047B704700E100E080B483B05E
:1024C80000AF0346FB71FB7903F01F02074997F938
:1024D80007305B09012000FA02F2603341F823203B
:1024E80000BF0C37BD465DF8047B704700E100E093
:1024F80080B483B000AF0346FB710A4A97F90730EE
:102508005B09803352F82320FB7903F01F0322FA7A
:1025180003F303F0010318460C37BD465DF8047B4E
:10252800704700BF00E100E080B483B000AF03460D
:102538003960FB7197F90730002B0BDA3B68DAB288
:102548000C49FB7903F00F03043B1201D2B20B4490
:102558001A7609E03B68DAB2074997F907301201A1
:10256800D2B20B4483F8002300BF0C37BD465DF898
:10257800047B704700ED00E000E100E080B483B028
:1025880000AF0346FB7197F90730002B0ADA0D4AB2
:10259800FB7903F00F03043B13441B7EDBB21B09DA
:1025A800DBB208E0084A97F90730134493F8003380
:1025B800DBB21B09DBB218460C37BD465DF8047B5D
:1025C800704700BF00ED00E000E100E080B489B092
:1025D80000AFF860B9607A60FB6803F00703FB613D
:1025E800FB69C3F10703042B28BF0423BB61FB6904
:1025F8000433062B02D9FB69033B00E000237B610F
:102608004FF0FF32BB6902FA03F3DA43BB681A40A2
:102618007B699A404FF0FF317B6901FA03F3D94394
:102628007B680B40134318462437BD465DF8047B8E
:10263800704780B489B000AFF860B9607A603B60D9
:10264800BB6803F00703FB61FB69C3F10703042BB5
:1026580028BF0423BB61FB690433062B02D9FB693D
:10266800033B00E000237B61FA687B69DA404FF0A6
:10267800FF31BB6901FA03F3DB431A407B681A6038
:102688004FF0FF327B6902FA03F3DA43FB681A4022
:102698003B681A6000BF2437BD465DF8047B70476D
:1026A80080B400AFBFF34F8F054BDB6803F4E062E3
:1026B8000349044B1343CB60BFF34F8F00BFFDE7C3
:1026C80000ED00E00400FA0580B582B000AF786044
:1026D8007B68013BB3F1807F01D301230FE00A4AF5
:1026E8007B68013B53600F214FF0FF30FFF71CFF61
:1026F800054B00229A60044B07221A6000231846F3
:102708000837BD4680BD00BF10E000E080B582B04C
:1027180000AF78607868FFF735FE00BF0837BD4620
:1027280080BD80B586B000AF0346B9607A60FB73A0
:1027380000237B61FFF74AFE78617A68B968786997
:10274800FFF744FF024697F90F3011461846FFF786
:10275800EBFE00BF1837BD4680BD80B582B000AF24
:102768000346FB7197F907301846FFF73DFE00BF97
:102778000837BD4680BD80B582B000AF0346FB7107
:1027880097F907301846FFF749FE00BF0837BD46DE
:1027980080BD80B500AFFFF783FF00BF80BD80B567
:1027A80082B000AF78607868FFF78EFF034618465E
:1027B8000837BD4680BD80B400AFBFF35F8F074BBD
:1027C8005B6A064A23F480335362054B00225A6041
:1027D80000BFBD465DF8047B704700BF00ED00E018
:1027E80090ED00E080B483B000AF78600A4A7B685F
:1027F80043F001035360094B5B6A084A43F4803392
:102808005362BFF34F8FBFF36F8F00BF0C37BD46C6
:102818005DF8047B704700BF90ED00E000ED00E03C
:1028280080B483B000AF78607B685A781D4B9A609B
:102838007B681B78002B29D01A4A7B685B68D360B9
:102848007B681B7B1A077B68DB7A1B061A437B684D
:102858009B7ADB041A437B685B7B9B041A437B6887
:102868009B7B5B041A437B68DB7B1B041A437B68F6
:102878005B7A1B021A437B681B7A5B0013437A68F6
:1028880012781146074A0B43136105E0054B0022F5
:10289800DA60044B00221A6100BF0C37BD465DF8B0
:1028A800047B704790ED00E080B500AFFFF78EFD28
:1028B8000346184680BD80B584B000AFB9607A6021
:1028C8003B600346FB7397F90F301846FFF756FE37
:1028D8003B687A68B968FFF7ACFE00BF1037BD46A1
:1028E80080BD80B582B000AF0346FB7197F9073011
:1028F8001846FFF7C9FD00BF0837BD4680BD80B543
:1029080082B000AF0346FB7197F907301846FFF70E
:102918009FFD034618460837BD4680BD80B582B086
:1029280000AF0346FB7197F907301846FFF7C6FD5D
:1029380000BF0837BD4680BD80B582B000AF0346F2
:10294800FB7197F907301846FFF7D2FD0346184682
:102958000837BD4680BD80B483B000AF78607B681F
:10296800042B06D1094B1B68084A43F00403136083
:1029780005E0064B1B68054A23F00403136000BFFB
:102988000C37BD465DF8047B704700BF10E000E0DF
:1029980080B500AF00F002F800BF80BD80B400AF82
:1029A80000BFBD465DF8047B704700BF80B586B0A8
:1029B80000AF786000237B61FDF7A2FC38617B687B
:1029C800002B01D1012399E07B68002283F8342091
:1029D8007B68022283F835207B681B681A687B684D
:1029E8001B6822F001021A600FE0FDF789FC02461D
:1029F8003B69D31A052B08D97B6820225A657B6866
:102A0800032283F83520032378E07B681B681B6862
:102A180003F00103002BE8D17B681B681B687B610E
:102A28007A69384B13407B617B685A687B689B687E
:102A38001A437B68DB681A437B681B691A437B6807
:102A48005B691A437B689B691A437B68DB691A4395
:102A58007B681B6A13437A6913437B617B685B6AF3
:102A6800042B07D17B68DA6A7B681B6B13437A698E
:102A780013437B617B681B687A691A607B681B68F3
:102A88005B697B617B6923F007037B617B685B6A19
:102A98007A6913437B617B685B6A042B17D17B6877
:102AA8009B6A7A6913437B617B68DB6A002B0ED0D3
:102AB800786800F045FD0346002B08D07B6840226B
:102AC8005A657B68012283F83520012316E07B686C
:102AD8001B687A695A61786800F0FCFC0346FB6061
:102AE8007B68DB6D3F229A40FB689A607B68002216
:102AF8005A657B68012283F8352000231846183769
:102B0800BD4680BD3F8010F080B584B000AF7860CE
:102B18007B68002B01D101233EE07B6893F83530B8
:102B2800DBB2022B01D1022336E07B681B681A68EE
:102B38007B681B6822F001021A607B681B68002210
:102B48001A607B681B6800225A607B681B68002239
:102B58009A607B681B680022DA607B681B68002229
:102B68001A617B681B6821225A61786800F0B2FC00
:102B78000346FB607B68DB6D3F229A40FB689A60E6
:102B88007B6800225A657B68002283F835207B68C1
:102B9800002283F83420002318461037BD4680BD34
:102BA80080B586B000AFF860B9607A603B600023FA
:102BB800FB75FB6893F83430012B01D1022326E022
:102BC800FB68012283F83420FB6893F83530DBB2C8
:102BD800012B15D1FB68022283F83520FB680022FF
:102BE8005A653B687A68B968F86800F045FCFB6884
:102BF8001B681A68FB681B6842F001021A6005E04E
:102C0800FB68002283F834200223FB75FB7D1846FD
:102C18001837BD4680BD80B586B000AFF860B96092
:102C28007A603B600023FB75FB689B6D3B61FB682A
:102C380093F83430012B01D1022348E0FB680122CC
:102C480083F83420FB6893F83530DBB2012B37D199
:102C5800FB68022283F83520FB6800225A653B682E
:102C68007A68B968F86800F007FCFB68DB6D3F22FA
:102C78009A403B699A60FB681B681A68FB681B6886
:102C880042F016021A60FB681B685A69FB681B68E9
:102C980042F080025A61FB681B6C002B07D0FB686E
:102CA8001B681A68FB681B6842F008021A60FB6818
:102CB8001B681A68FB681B6842F001021A6005E08D
:102CC800FB68002283F834200223FB75FB7D18463D
:102CD8001837BD4680BD80B584B000AF78607B688A
:102CE8009B6DFB60FDF70CFBB8607B6893F8353093
:102CF800DBB2022B08D07B6880225A657B680022F1
:102D080083F83420012352E07B681B681A687B68CB
:102D18001B6822F016021A607B681B685A697B6878
:102D28001B6822F080025A617B681B6C002B03D160
:102D38007B689B6C002B07D07B681B681A687B68D4
:102D48001B6822F008021A607B681B681A687B6897
:102D58001B6822F001021A6013E0FDF7D1FA02465F
:102D6800BB68D31A052B0CD97B6820225A657B686F
:102D7800002283F834207B68032283F8352003235C
:102D880015E07B681B681B6803F00103002BE4D186
:102D98007B68DB6D3F229A40FB689A607B68002263
:102DA80083F834207B68012283F8352000231846F5
:102DB8001037BD4680BD80B483B000AF78607B68B3
:102DC80093F83530DBB2022B04D07B6880225A6539
:102DD80001230CE07B68052283F835207B681B689B
:102DE8001A687B681B6822F001021A6000231846E3
:102DF8000C37BD465DF8047B704780B58AB000AFDC
:102E0800F8600B467A60FB720023FB77FDF778FACF
:102E1800B861FB6893F83530DBB2022B08D0FB6849
:102E280080225A65FB68002283F834200123BFE022
:102E3800FB681B681B6803F48073002B05D0FB68D4
:102E48004FF480725A650123B2E0FB7A002B06D159
:102E5800FB68DB6D202202FA03F37B6205E0FB6866
:102E6800DB6D102202FA03F37B62FB689B6D7B61CA
:102E78007B691B683B625AE07B68B3F1FF3F17D060
:102E88007B68002B07D0FDF73BFA0246BB69D31AD3
:102E98007A689A420CD2FB6820225A65FB680022A5
:102EA80083F83420FB68012283F8352003237FE070
:102EB8007B691B683B62FB68DB6D08229A403B6AB2
:102EC8001340002B0BD0FB685B6D43F00102FB68DD
:102ED8005A65FB68DB6D08229A407B699A60FB683B
:102EE800DB6D01229A403B6A1340002B0BD0FB6834
:102EF8005B6D43F00202FB685A65FB68DB6D0122DB
:102F08009A407B699A60FB68DB6D04229A403B6AB1
:102F18001340002B0BD0FB685B6D43F00402FB6889
:102F28005A65FB68DB6D04229A407B699A603A6AAD
:102F38007B6A1340002B05D1FB685B6D03F001032E
:102F4800002B99D0FB685B6D002B18D0FB685B6D7C
:102F580003F00103002B12D0F868FFF7BCFEFB68F2
:102F6800DB6D30229A407B699A60FB68002283F807
:102F78003420FB68012283F83520012318E0FB7A0E
:102F8800002B0ED1FB68DB6D30229A407B699A607A
:102F9800FB68002283F83420FB68012283F835207F
:102FA80005E0FB68DB6D10229A407B699A60FB7F25
:102FB80018462837BD4680BD80B586B000AF78601A
:102FC8000023BB60924B1B68924AA2FB03239B0A17
:102FD8007B617B689B6D3B613B691B68FB607B6821
:102FE800DB6D08229A40FB681340002B1AD07B68DF
:102FF8001B681B6803F00403002B13D07B681B6855
:103008001A687B681B6822F004021A607B68DB6D13
:1030180008229A403B699A607B685B6D43F0010225
:103028007B685A657B68DB6D01229A40FB68134018
:10303800002B12D07B681B685B6903F08003002BB0
:103048000BD07B68DB6D01229A403B699A607B68F4
:103058005B6D43F002027B685A657B68DB6D042276
:103068009A40FB681340002B12D07B681B681B68D2
:1030780003F00203002B0BD07B68DB6D04229A401F
:103088003B699A607B685B6D43F004027B685A6514
:103098007B68DB6D10229A40FB681340002B43D0FD
:1030A8007B681B681B6803F00803002B3CD07B6817
:1030B800DB6D10229A403B699A607B681B681B682D
:1030C80003F48023002B18D07B681B681B6803F46B
:1030D8000023002B08D17B681B6C002B24D07B6855
:1030E8001B6C786898471FE07B689B6C002B1BD093
:1030F8007B689B6C7868984716E07B681B681B6840
:1031080003F48073002B07D17B681B681A687B68FF
:103118001B6822F008021A607B681B6C002B03D026
:103128007B681B6C786898477B68DB6D20229A4027
:10313800FB681340002B00F08E807B681B681B68BF
:1031480003F01003002B00F086807B68DB6D2022E3
:103158009A403B699A607B6893F83530DBB2052B5F
:1031680036D17B681B681A687B681B6822F01602D8
:103178001A607B681B685A697B681B6822F08002AA
:103188005A617B681B6C002B03D17B689B6C002BFE
:1031980007D07B681B681A687B681B6822F00802E6
:1031A8001A607B68DB6D3F229A403B699A607B68B6
:1031B800002283F834207B68012283F835207B685D
:1031C8001B6D002B7DD07B681B6D7868984778E075
:1031D8007B681B681B6803F48023002B1CD07B686A
:1031E8001B681B6803F40023002B08D17B685B6C09
:1031F800002B30D07B685B6C786898472BE07B6845
:10320800DB6B002B27D07B68DB6B7868984722E064
:1032180008000020B5814E1B7B681B681B6803F4FF
:103228008073002B0FD17B681B681A687B681B684A
:1032380022F010021A607B68002283F834207B6831
:10324800012283F835207B68DB6B002B03D07B6879
:10325800DB6B786898477B685B6D002B32D07B68A6
:103268005B6D03F00103002B22D07B68052283F8F5
:1032780035207B681B681A687B681B6822F001028E
:103288001A60BB680133BB607A699A4207D37B68CE
:103298001B681B6803F00103002BF2D100E000BF9C
:1032A8007B68002283F834207B68012283F835206C
:1032B8007B68DB6C002B05D07B68DB6C78689847F3
:1032C80000E000BF1837BD4680BD80B487B000AFAE
:1032D800F8600B467A60FB720023FB75FB6893F875
:1032E8003430012B01D102233DE0FB68012283F831
:1032F8003420FB6893F83530DBB2012B2AD1FB7AF6
:10330800052B2AD801A252F823F000BF2D3300085C
:10331800353300083D330008453300084D330008B5
:1033280055330008FB687A68DA6317E0FB687A6847
:103338001A6413E0FB687A685A640FE0FB687A68DD
:103348009A640BE0FB687A68DA6407E0FB687A68DD
:103358001A6503E00123FB7500E000BFFB6800224B
:1033680083F83420FB7D18461C37BD465DF8047B86
:10337800704780B485B000AF78600B46FB700023BF
:10338800FB737B6893F83430012B01D1022353E09F
:103398007B68012283F834207B6893F83530DBB2F0
:1033A800012B42D1FB78062B3BD801A252F823F01F
:1033B800D5330008DD330008E5330008ED33000895
:1033C800F5330008FD330008053400087B68002247
:1033D800DA632CE07B6800221A6428E07B6800220C
:1033E8005A6424E07B6800229A6420E07B6800220B
:1033F800DA641CE07B6800221A6518E07B6800220A
:10340800DA637B6800221A647B6800225A647B684E
:1034180000229A647B680022DA647B6800221A65BD
:1034280005E00123FB7300BF01E00123FB737B6808
:10343800002283F83420FB7B18461437BD465DF81C
:10344800047B704780B483B000AF78607B6893F8E2
:103458003530DBB218460C37BD465DF8047B704743
:1034680080B483B000AF78607B685B6D18460C371A
:10347800BD465DF8047B704780B485B000AFF86046
:10348800B9607A603B60FB681B681A68FB681B6858
:1034980022F480221A60FB681B683A685A60FB684D
:1034A8009B68402B08D1FB681B687A689A60FB68A8
:1034B8001B68BA68DA6007E0FB681B68BA689A603C
:1034C800FB681B687A68DA6000BF1437BD465DF890
:1034D800047B704780B485B000AF78607B681B6858
:1034E800DBB2103B144AA2FB03231B09FB60134AFF
:1034F800FB6813441B781A467B68DA65FB68032B64
:1035080009D97B681B6823F47F7323F003031A1D12
:103518007B689A6507E07B681B6823F47F7323F058
:1035280003037A6893657B689B6D18461437BD461C
:103538005DF8047B704700BFABAAAAAAA8B300082D
:1035480080B485B000AF78600023FB737B689B6A0A
:10355800BB607B689B69002B1FD1BB68032B55D8C8
:1035680001A252F823F000BF813500089335000806
:1035780081350008153600087B68DB6A03F0807324
:10358800002B45D00123FB7342E07B68DB6AB3F173
:10359800C07F3FD10123FB733CE07B689B69B3F597
:1035A800005F21D1BB68032B36D801A252F823F063
:1035B800C9350008CF350008C9350008E1350008CD
:1035C8000123FB732FE07B68DB6A03F08073002B19
:1035D80024D00123FB7321E07B68DB6AB3F1C07F51
:1035E8001ED10123FB731BE0BB68022B02D9032BFE
:1035F80003D018E00123FB7315E07B68DB6A03F056
:103608008073002B0ED00123FB730BE000BF0AE090
:1036180000BF08E000BF06E000BF04E000BF02E012
:1036280000BF00E000BFFB7B18461437BD465DF8BD
:10363800047B704780B489B000AF7860396000239C
:103648007B6100233B610023BB610023FB616BE1CD
:103658000122FB6902FA03F37B613B681B687A6904
:1036680013403B613A697B699A4240F05A813B6852
:103678005B68022B03D03B685B68122B23D1FB6984
:10368800DA087B68083253F82230BB61FB6903F023
:1036980007039B000F2202FA03F3DB43BA691340C6
:1036A800BB613B681A69FB6903F007039B0002FAD8
:1036B80003F3BA691343BB61FB69DA087B68083214
:1036C800B96943F822107B681B68BB61FB695B0022
:1036D800032202FA03F3DB43BA691340BB613B6878
:1036E8005B6803F00302FB695B0002FA03F3BA6943
:1036F8001343BB617B68BA691A603B685B68012B3E
:103708000BD03B685B68022B07D03B685B68112BCA
:1037180003D03B685B68122B30D17B689B68BB6128
:10372800FB695B00032202FA03F3DB43BA69134027
:10373800BB613B68DA68FB695B0002FA03F3BA69AC
:103748001343BB617B68BA699A607B685B68BB613D
:103758000122FB6902FA03F3DB43BA691340BB6138
:103768003B685B681B0903F00102FB6902FA03F37B
:10377800BA691343BB617B68BA695A607B68DB68C6
:10378800BB61FB695B00032202FA03F3DB43BA69FE
:103798001340BB613B689A68FB695B0002FA03F35C
:1037A800BA691343BB617B68BA69DA603B685B68D6
:1037B80003F08053002B00F0B4800023FB605F4BC4
:1037C8005B6C5E4A43F4804353645C4B5B6C03F46C
:1037D8008043FB60FB685A4AFB699B08023352F836
:1037E8002330BB61FB6903F003039B000F2202FA3D
:1037F80003F3DB43BA691340BB617B68514A9342C8
:103808002BD07B68504A934225D07B684F4A93421D
:103818001FD07B684E4A934219D07B684D4A934229
:1038280013D07B684C4A93420DD07B684B4A934235
:1038380007D07B684A4A934201D107230EE0082348
:103848000CE006230AE0052308E0042306E003232E
:1038580004E0022302E0012300E00023FA6902F0F9
:10386800030292009340BA691343BB613449FB6970
:103878009B080233BA6941F823203A4B1B68BB61A5
:103888003B69DB43BA691340BB613B685B6803F47F
:103898008033002B03D0BA693B691343BB61314ABB
:1038A800BB6913602F4B5B68BB613B69DB43BA693B
:1038B8001340BB613B685B6803F40033002B03D003
:1038C800BA693B691343BB61264ABB695360254B00
:1038D8009B68BB613B69DB43BA691340BB613B68CA
:1038E8005B6803F48013002B03D0BA693B69134368
:1038F800BB611C4ABB6993601A4BDB68BB613B69BF
:10390800DB43BA691340BB613B685B6803F400138F
:10391800002B03D0BA693B691343BB61114ABB69E9
:10392800D360FB690133FB61FB690F2B7FF690AE17
:1039380000BF2437BD465DF8047B7047003802405D
:103948000038014000000240000402400008024024
:10395800000C02400010024000140240001802400F
:10396800001C0240003C014080B487B000AF786082
:10397800396000233B610023FB600023BB60002308
:103988007B61CDE001227B6902FA03F33B613A686F
:103998003B691340FB60FA683B699A4240F0BD807E
:1039A8007B681A687B695B00032101FA03F3DB4338
:1039B8001A407B681A607B69DA087B68083253F81A
:1039C80022107B6903F007039B000F2202FA03F31E
:1039D800DB437A69D20819407B68083243F8221021
:1039E8007B689A687B695B00032101FA03F3DB4378
:1039F8001A407B689A607B685A6801217B6901FAE2
:103A080003F3DB431A407B685A607B68DA687B699A
:103A18005B00032101FA03F3DB431A407B68DA6099
:103A2800444A7B699B08023352F82330BB607B69A8
:103A380003F003039B000F2202FA03F3BA68134052
:103A4800BB607B683C4A93422BD07B683B4A9342DD
:103A580025D07B683A4A93421FD07B68394A934203
:103A680019D07B68384A934213D07B68374A93420F
:103A78000DD07B68364A934207D07B68354A93421B
:103A880001D107230EE008230CE006230AE00523F2
:103A980008E0042306E0032304E0022302E00123F4
:103AA80000E000237A6902F0030292009340BA68AA
:103AB8009A4232D17B6903F003039B000F2202FA7A
:103AC80003F3BB601B4A7B699B08023352F823103F
:103AD800BB68DA4317487B699B080A40023340F801
:103AE80023201D4B1A68FB68DB431B4913400B60FE
:103AF800194B5A68FB68DB43174913404B60164B58
:103B08009A68FB68DB43144913408B60124BDA68F0
:103B1800FB68DB4310491340CB607B6901337B6151
:103B28007B690F2B7FF62EAF00BF1C37BD465DF8B3
:103B3800047B704700380140000002400004024046
:103B480000080240000C024000100240001402402D
:103B580000180240001C0240003C014080B485B0BF
:103B680000AF78600B467B807B681A697B881340BE
:103B7800002B02D00123FB7301E00023FB73FB7BC6
:103B880018461437BD465DF8047B704780B483B08F
:103B980000AF78600B467B8013467B707B78002BE8
:103BA80003D07A887B689A6103E07B881A047B6873
:103BB8009A6100BF0C37BD465DF8047B704780B43E
:103BC80083B000AF78600B467B807B685A697B883E
:103BD8005A407B685A6100BF0C37BD465DF8047BCC
:103BE800704780B485B000AF78600B467B804FF497
:103BF8008033FB607A88FB681343FB60FA687B6854
:103C0800DA617A887B68DA61FA687B68DA617B68EE
:103C1800DB69FB607B68DB6903F48033002B01D030
:103C2800002300E0012318461437BD465DF8047BE5
:103C3800704780B582B000AF0346FB80084B5A69D5
:103C4800FB881340002B06D0054AFB885361FB888C
:103C5800184600F007F800BF0837BD4680BD00BF12
:103C6800003C014080B483B000AF0346FB8000BF36
:103C78000C37BD465DF8047B704700BF80B400AFC9
:103C880000231846BD465DF8047B704780B586B0B2
:103C980000AF78607B68002B01D101232DE27B689F
:103CA8001B6803F00103002B75D0A34B9B6803F03E
:103CB8000C03042B0CD0A04B9B6803F00C03082BBF
:103CC80012D19D4B5B6803F48003B3F5800F0BD1D1
:103CD800994B1B6803F40033002B5BD07B685B684F
:103CE800002B57D1012308E27B685B68B3F5803F5E
:103CF80006D1914B1B68904A43F4803313601DE052
:103D08007B685B68B3F5A02F0CD18B4B1B688A4A84
:103D180043F480231360884B1B68874A43F480333D
:103D280013600BE0844B1B68834A23F480331360D1
:103D3800814B1B68804A23F4802313607B685B688F
:103D4800002B13D0FCF7DCFA386108E0FCF7D8FA4E
:103D580002463B69D31A642B01D90323CDE1764B84
:103D68001B6803F40033002BF0D014E0FCF7C8FA0A
:103D7800386108E0FCF7C4FA02463B69D31A642BA1
:103D880001D90323B9E16C4B1B6803F40033002B02
:103D9800F0D100E000BF7B681B6803F00203002B32
:103DA80063D0654B9B6803F00C03002B0BD0624B70
:103DB8009B6803F00C03082B1CD15F4B5B6803F472
:103DC8008003002B16D15C4B1B6803F00203002B09
:103DD80005D07B68DB68012B01D001238DE1564BB0
:103DE8001B6823F0F8027B681B69DB005249134308
:103DF8000B603AE07B68DB68002B20D04F4B012238
:103E08001A60FCF77DFA386108E0FCF779FA024697
:103E18003B69D31A022B01D903236EE1464B1B6879
:103E280003F00203002BF0D0434B1B6823F0F80289
:103E38007B681B69DB00404913430B6015E03F4B6F
:103E480000221A60FCF75CFA386108E0FCF758FABF
:103E580002463B69D31A022B01D903234DE1364BA5
:103E68001B6803F00203002BF0D17B681B6803F08A
:103E78000803002B30D07B685B69002B16D0304BD1
:103E880001221A60FCF73CFA386108E0FCF738FABE
:103E980002463B69D31A022B01D903232DE1264B95
:103EA8005B6F03F00203002BF0D015E0244B0022D7
:103EB8001A60FCF725FA386108E0FCF721FA024697
:103EC8003B69D31A022B01D9032316E11A4B5B6F06
:103ED80003F00203002BF0D17B681B6803F0040396
:103EE800002B00F0A0800023FB75134B1B6C03F024
:103EF8008053002B0FD10023FB600F4B1B6C0E4A25
:103F080043F0805313640C4B1B6C03F08053FB602D
:103F1800FB680123FB750B4B1B6803F48073002BB4
:103F280021D1084B1B68074A43F480731360FCF7E0
:103F3800E7F9386111E000BF00380240000047424D
:103F4800800E474200700040FCF7DAF902463B69F0
:103F5800D31A022B01D90323CFE06A4B1B6803F461
:103F68008073002BF0D07B689B68012B06D1664BD1
:103F78001B6F654A43F0010313671CE07B689B686D
:103F8800052B0CD1604B1B6F5F4A43F0040313678A
:103F98005D4B1B6F5C4A43F0010313670BE05A4B00
:103FA8001B6F594A23F001031367574B1B6F564A7F
:103FB80023F0040313677B689B68002B15D0FCF77C
:103FC8009FF938610AE0FCF79BF902463B69D31A6E
:103FD80041F28832934201D903238EE04A4B1B6F8A
:103FE80003F00203002BEED014E0FCF789F93861E6
:103FF8000AE0FCF785F902463B69D31A41F2883298
:10400800934201D9032378E03F4B1B6F03F002036F
:10401800002BEED1FB7D012B05D13B4B1B6C3A4AA3
:1040280023F0805313647B689B69002B64D0364B64
:104038009B6803F00C03082B5CD07B689B69022B00
:1040480041D1324B00221A60FCF75AF9386108E076
:10405800FCF756F902463B69D31A022B01D9032310
:104068004BE0294B1B6803F00073002BF0D17B68F1
:10407800DA697B681B6A1A437B685B6A9B011A438F
:104088007B689B6A5B08013B1B041A437B68DB6AFD
:104098001B061D4913434B601C4B01221A60FCF799
:1040A8002FF9386108E0FCF72BF902463B69D31A6F
:1040B800022B01D9032320E0134B1B6803F0007384
:1040C800002BF0D018E0114B00221A60FCF718F909
:1040D800386108E0FCF714F902463B69D31A022B51
:1040E80001D9032309E0084B1B6803F00073002B78
:1040F800F0D101E0012300E0002318461837BD463F
:1041080080BD00BF00700040003802406000474298
:1041180080B584B000AF786039607B68002B01D12E
:104128000123CAE0674B1B6803F00F033A689A4201
:104138000CD9644B3A68D2B21A70624B1B6803F010
:104148000F033A689A4201D00123B6E07B681B68E6
:1041580003F00203002B20D07B681B6803F00403E4
:10416800002B05D0584B9B68574A43F4E0539360A3
:104178007B681B6803F00803002B05D0524B9B6833
:10418800514A43F4604393604F4B9B6823F0F0021D
:104198007B689B684C4913438B607B681B6803F002
:1041A8000103002B44D07B685B68012B07D1464B89
:1041B8001B6803F40033002B19D101237DE07B68D1
:1041C8005B68022B03D07B685B68032B07D13E4BEF
:1041D8001B6803F00073002B09D101236DE03A4BF3
:1041E8001B6803F00203002B01D1012365E0364B65
:1041F8009B6823F003027B685B68334913438B6039
:10420800FCF77EF8F8600AE0FCF77AF80246FB68EB
:10421800D31A41F28832934201D903234DE02A4B45
:104228009B6803F00C027B685B689B009A42EBD1A9
:10423800244B1B6803F00F033A689A420CD2214BB7
:104248003A68D2B21A701F4B1B6803F00F033A6822
:104258009A4201D0012330E07B681B6803F0040315
:10426800002B08D0184B9B6823F4E0527B68DB686E
:10427800154913438B607B681B6803F00803002B08
:1042880009D0114B9B6823F460427B681B69DB00F3
:104298000D4913438B6000F09DF801460A4B9B685B
:1042A8001B0903F00F03094AD35C21FA03F3084AF8
:1042B80013600020FBF7E0FF002318461037BD46C7
:1042C80080BD00BF003C024000380240B0B3000887
:1042D8000800002080B58CB000AFF860B9607A6043
:1042E800FB68002B29D10023BB612B4B1B6B2A4A8F
:1042F80043F001031363284B1B6B03F00103BB61FD
:10430800BB694FF48073FB6102233B620323BB62EA
:1043180000237B620023FB6207F11C0319461F4838
:10432800FFF788F91C4B9B6823F0EC62B9687B683F
:104338000B43194913438B6029E000237B61164B1B
:104348001B6B154A43F004031363134B1B6B03F0F9
:1043580004037B617B694FF40073FB6102233B62BA
:104368000323BB6200237B620023FB6207F11C036B
:1043780019460B48FFF75EF9074B9B6823F0784214
:104388007B68D900BB680B43034913438B6000BFAC
:104398003037BD4680BD00BF0038024000000240F3
:1043A8000008024080B400AF034B01221A6000BF2E
:1043B800BD465DF8047B70474C00474280B400AFAF
:1043C800034B00221A6000BFBD465DF8047B7047AE
:1043D8004C004742F0B585B000AF00237B60002356
:1043E800FB6000233B600023BB60504B9B6803F0DD
:1043F8000C03042B07D0082B08D0002B40F08D802D
:104408004B4BBB608CE04B4BBB6089E0474B5B6818
:1044180003F03F037B60454B5B6803F48003002B8C
:1044280023D0424B5B689B094FF0000440F2FF1118
:104438004FF0000203EA010504EA02063D4A02FBC6
:1044480006F1002202FB05F20A443A49A5FB0101E4
:10445800531819467B684FF000041A46234606F0A5
:10446800BDFD03460C46FB6049E0304B5B689B0989
:104478004FF0000440F2FF114FF0000203EA01057B
:1044880004EA0206294632464FF000034FF00004C2
:10449800540144EAD1644B0119462246491B62EB98
:1044A80006024FF000034FF00004940144EA9164BF
:1044B8008B015B1A64EB02044FF000014FF000021D
:1044C800E20042EA5372D9000B4614465B1944EBEA
:1044D80006044FF000014FF00002A20242EA935294
:1044E80099020B461446184621467B684FF0000493
:1044F8001A46234606F072FD03460C46FB600B4B3A
:104508005B681B0C03F0030301335B003B60FA6834
:104518003B68B2FBF3F3BB6002E0054BBB6000BF36
:10452800BB6818461437BD46F0BD00BF00380240CE
:104538000024F40040787D0180B400AF034B1B6871
:104548001846BD465DF8047B704700BF0800002090
:1045580080B500AFFFF7F0FF0146054B9B689B0A4B
:1045680003F00703034AD35C21FA03F3184680BD1E
:1045780000380240C0B3000880B500AFFFF7DCFF89
:104588000146054B9B685B0B03F00703034AD35CAA
:1045980021FA03F3184680BD00380240C0B3000872
:1045A80080B483B000AF78607B680F221A60454BF7
:1045B8001B6803F48023B3F5802F04D17B684FF484
:1045C800A0225A600EE03F4B1B6803F48033B3F51A
:1045D800803F04D17B684FF480325A6002E07B68E8
:1045E80000225A60374B1B6803F00103012B03D1EB
:1045F8007B680122DA6002E07B680022DA60314BD6
:104608001B68DB0803F01F027B681A612D4B1B6FC8
:1046180003F00403042B03D17B6805229A600CE0A5
:10462800284B1B6F03F00103012B03D17B68012288
:104638009A6002E07B6800229A60224B5B6F03F06D
:104648000103012B03D17B6801225A6102E07B68D8
:1046580000225A611B4B1B6803F08073B3F1807F03
:1046680003D17B6802229A6102E07B6801229A6189
:10467800144B5B6803F480027B68DA61114B5B685A
:1046880003F03F027B681A620E4B5B689B09C3F319
:1046980008027B685A620B4B5B6803F4403303F5EE
:1046A80080335B001A0C7B689A62064B5B681B0EB2
:1046B80003F00F027B68DA6200BF0C37BD465DF875
:1046C800047B70470038024080B483B000AF786044
:1046D80039607B680F221A60124B9B6803F0030253
:1046E8007B685A600F4B9B6803F0F0027B689A6006
:1046F8000C4B9B6803F4E0527B68DA60094B9B68BB
:10470800DB0803F4E0527B681A61074B1B6803F06F
:104718000F023B681A6000BF0C37BD465DF8047B8A
:10472800704700BF00380240003C024080B500AF2F
:10473800064BDB6803F08003802B04D100F00AF8F5
:10474800034B80221A7000BF80BD00BF00380240B2
:104758000E38024080B400AF00BFBD465DF8047B50
:10476800704700BF80B582B000AF78607B68002BCF
:1047780001D101231DE07B6893F83930DBB2002BAF
:1047880006D17B68002283F83820786805F0ACFEF3
:104798007B68022283F839207B681A687B680433B7
:1047A8001946104603F074F97B68012283F8392012
:1047B800002318460837BD4680BD80B582B000AFDB
:1047C80078607B68022283F839207B681B681A6A44
:1047D80041F211131340002B0FD17B681B681A6A32
:1047E80040F244431340002B07D17B681B681A68CA
:1047F8007B681B6822F001021A60786805F0EAFEFF
:104808007B68002283F839207B68002283F83820EF
:10481800002318460837BD4680BD80B483B000AF7A
:10482800786000BF0C37BD465DF8047B704780B4E4
:1048380083B000AF786000BF0C37BD465DF8047BDD
:10484800704780B483B000AF78607B68022283F839
:1048580039207B681B681A687B681B6842F0010274
:104868001A607B68012283F83920002318460C3728
:10487800BD465DF8047B704780B483B000AF7860B4
:104888007B68022283F839207B681B681A6A41F228
:1048980011131340002B0FD17B681B681A6A40F272
:1048A80044431340002B07D17B681B681A687B6858
:1048B8001B6822F001021A607B68012283F8392004
:1048C800002318460C37BD465DF8047B704780B45A
:1048D80083B000AF78607B681B68DA687B681B6808
:1048E80042F00102DA607B681B681A687B681B6803
:1048F80042F001021A60002318460C37BD465DF8E5
:10490800047B704780B483B000AF78607B681B6815
:10491800DA687B681B6822F00102DA607B681B6832
:104928001A6A41F211131340002B0FD17B681B68E0
:104938001A6A40F244431340002B07D17B681B6876
:104948001A687B681B6822F001021A600023184667
:104958000C37BD465DF8047B704780B584B000AF66
:10496800F860B9601346FB80FB6893F83930DBB216
:10497800022B01D1022334E0FB6893F83930DBB213
:10498800012B0BD1BB68002B04D1FB88002B01D075
:10499800012326E0FB68022283F83920FB68DB69E3
:1049A800124ADA63FB68DB69114ADA64FB68D86982
:1049B800B968FB681B682C331A46FB88FEF72BF98D
:1049C800FB681B68DA68FB681B6842F48072DA606F
:1049D800FB681B681A68FB681B6842F001021A60D2
:1049E800002318461037BD4680BD00BF1F7F000852
:1049F800457E000880B483B000AF78607B681B6890
:104A0800DA687B681B6822F48072DA607B681B684E
:104A18001A6A41F211131340002B0FD17B681B68EF
:104A28001A6A40F244431340002B07D17B681B6885
:104A38001A687B681B6822F001021A607B680122F1
:104A480083F83920002318460C37BD465DF8047BEF
:104A5800704780B582B000AF78607B68002B01D1C9
:104A680001231DE07B6893F83930DBB2002B06D1B7
:104A78007B68002283F83820786800F045F87B6866
:104A8800022283F839207B681A687B680433194648
:104A9800104602F0FDFF7B68012283F839200023CD
:104AA80018460837BD4680BD80B582B000AF786033
:104AB8007B68022283F839207B681B681A6A41F2F6
:104AC80011131340002B0FD17B681B681A6A40F240
:104AD80044431340002B07D17B681B681A687B6826
:104AE8001B6822F001021A60786800F017F87B68EA
:104AF800002283F839207B68002283F838200023BD
:104B080018460837BD4680BD80B483B000AF7860D2
:104B180000BF0C37BD465DF8047B704780B483B096
:104B280000AF786000BF0C37BD465DF8047B704766
:104B380080B582B000AF786039607B681B6801225D
:104B48003968184603F0C4F97B681B68104A934219
:104B580004D07B681B680F4A934201D1012300E00F
:104B68000023002B07D07B681B685A6C7B681B6886
:104B780042F400425A647B681B681A687B681B68A9
:104B880042F001021A60002318460837BD4680BD6E
:104B9800000001400004014080B582B000AF786099
:104BA80039607B681B6800223968184603F090F961
:104BB8007B681B68204A934204D07B681B681F4AA5
:104BC800934201D1012300E00023002B17D07B681A
:104BD8001B681A6A41F211131340002B0FD17B682E
:104BE8001B681A6A40F244431340002B07D17B68C4
:104BF8001B685A6C7B681B6822F400425A647B6805
:104C08001B681A6A41F211131340002B0FD17B68FD
:104C18001B681A6A40F244431340002B07D17B6893
:104C28001B681A687B681B6822F001021A6000235F
:104C380018460837BD4680BD000001400004014009
:104C480080B582B000AF786039603B680C2B41D8E2
:104C580001A252F823F000BF954C0008DD4C000873
:104C6800DD4C0008DD4C0008A74C0008DD4C0008AE
:104C7800DD4C0008DD4C0008B94C0008DD4C00088C
:104C8800DD4C0008DD4C0008CB4C00087B681B6835
:104C9800DA687B681B6842F00202DA601BE07B6816
:104CA8001B68DA687B681B6842F00402DA6012E06D
:104CB8007B681B68DA687B681B6842F00802DA6068
:104CC80009E07B681B68DA687B681B6842F01002A1
:104CD800DA6000E000BF7B681B680122396818466B
:104CE80003F0F6F87B681B68104A934204D07B688F
:104CF8001B680F4A934201D1012300E00023002BD7
:104D080007D07B681B685A6C7B681B6842F40042BA
:104D18005A647B681B681A687B681B6842F001024A
:104D28001A60002318460837BD4680BD00000140C0
:104D38000004014080B582B000AF786039603B68FC
:104D48000C2B41D801A252F823F000BF894D00086E
:104D5800D14D0008D14D0008D14D00089B4D0008E9
:104D6800D14D0008D14D0008D14D0008AD4D0008C7
:104D7800D14D0008D14D0008D14D0008BF4D0008A5
:104D88007B681B68DA687B681B6822F00202DA60BD
:104D98001BE07B681B68DA687B681B6822F00402EA
:104DA800DA6012E07B681B68DA687B681B6822F0AF
:104DB8000802DA6009E07B681B68DA687B681B68B0
:104DC80022F01002DA6000E000BF7B681B68002256
:104DD8003968184603F07CF87B681B68204A9342C0
:104DE80004D07B681B681F4A934201D1012300E06D
:104DF8000023002B17D07B681B681A6A41F2111335
:104E08001340002B0FD17B681B681A6A40F2444399
:104E18001340002B07D17B681B685A6C7B681B68A2
:104E280022F400425A647B681B681A6A41F2111323
:104E38001340002B0FD17B681B681A6A40F2444369
:104E48001340002B07D17B681B681A687B681B68B6
:104E580022F001021A60002318460837BD4680BDBB
:104E6800000001400004014080B584B000AFF86044
:104E7800B9607A607B80FB6893F83930DBB2022B2B
:104E880001D10223C6E0FB6893F83930DBB2012B6D
:104E98000BD17B68002B04D17B88002B01D0012328
:104EA800B8E0FB68022283F83920BB680C2B00F2BB
:104EB800898001A252F823F0F54E0008CD4F000872
:104EC800CD4F0008CD4F00082B4F0008CD4F0008EC
:104ED800CD4F0008CD4F0008614F0008CD4F0008A6
:104EE800CD4F0008CD4F0008974F0008FB681B6A9C
:104EF8004A4ADA63FB681B6A494ADA64FB68186A3B
:104F08007968FB681B6834331A467B88FDF783FE93
:104F1800FB681B68DA68FB681B6842F40072DA6099
:104F280051E0FB685B6A3D4ADA63FB685B6A3C4AAE
:104F3800DA64FB68586A7968FB681B6838331A4674
:104F48007B88FDF768FEFB681B68DA68FB681B68EE
:104F580042F48062DA6036E0FB689B6A2F4ADA63C3
:104F6800FB689B6A2E4ADA64FB68986A7968FB6872
:104F78001B683C331A467B88FDF74DFEFB681B68AF
:104F8800DA68FB681B6842F40062DA601BE0FB68C1
:104F9800DB6A224ADA63FB68DB6A214ADA64FB6867
:104FA800D86A7968FB681B6840331A467B88FDF726
:104FB80032FEFB681B68DA68FB681B6842F48052A3
:104FC800DA6000E000BFFB681B680122B968184678
:104FD80002F07EFFFB681B68124A934204D0FB680C
:104FE8001B68114A934201D1012300E00023002BE2
:104FF80007D0FB681B685A6CFB681B6842F40042C8
:105008005A64FB681B681A68FB681B6842F0010257
:105018001A60002318461037BD4680BDD57D0008AC
:10502800457E0008000001400004014080B582B0C0
:1050380000AF786039603B680C2B41D801A252F868
:1050480023F000BF81500008C9500008C95000086B
:10505800C950000893500008C9500008C9500008FA
:10506800C9500008A5500008C9500008C9500008D8
:10507800C9500008B75000087B681B68DA687B686D
:105088001B6822F40072DA601BE07B681B68DA6830
:105098007B681B6822F48062DA6012E07B681B6818
:1050A800DA687B681B6822F40062DA6009E07B68D2
:1050B8001B68DA687B681B6822F48052DA6000E0BB
:1050C80000BF7B681B6800223968184602F000FFA1
:1050D8007B681B68224A934204D07B681B68214A7C
:1050E800934201D1012300E00023002B17D07B68F5
:1050F8001B681A6A41F211131340002B0FD17B6809
:105108001B681A6A40F244431340002B07D17B689E
:105118001B685A6C7B681B6822F400425A647B68DF
:105128001B681A6A41F211131340002B0FD17B68D8
:105138001B681A6A40F244431340002B07D17B686E
:105148001B681A687B681B6822F001021A607B687A
:10515800012283F83920002318460837BD4680BD50
:10516800000001400004014080B582B000AF7860C3
:105178007B68002B01D101231DE07B6893F839304F
:10518800DBB2002B06D17B68002283F838207868D0
:1051980000F045F87B68022283F839207B681A689A
:1051A8007B6804331946104602F072FC7B680122C2
:1051B80083F83920002318460837BD4680BD80B5DE
:1051C80082B000AF78607B68022283F839207B6860
:1051D8001B681A6A41F211131340002B0FD17B6828
:1051E8001B681A6A40F244431340002B07D17B68BE
:1051F8001B681A687B681B6822F001021A607868CD
:1052080000F017F87B68002283F839207B680022B9
:1052180083F83820002318460837BD4680BD80B47F
:1052280083B000AF786000BF0C37BD465DF8047BE3
:10523800704780B483B000AF786000BF0C37BD46BC
:105248005DF8047B704780B582B000AF7860396044
:105258007B681B6801223968184602F039FE7B68B2
:105268001B68114A934204D07B681B680F4A93421B
:1052780001D1012300E00023002B07D07B681B68C5
:105288005A6C7B681B6842F400425A647B681B684E
:105298001A687B681B6842F001021A6000231846EE
:1052A8000837BD4680BD00BF000001400004014032
:1052B80080B582B000AF786039607B681B680022D7
:1052C8003968184602F004FE7B681B68224A93423C
:1052D80004D07B681B68214A934201D1012300E076
:1052E8000023002B17D07B681B681A6A41F2111340
:1052F8001340002B0FD17B681B681A6A40F24443A5
:105308001340002B07D17B681B685A6C7B681B68AD
:1053180022F400425A647B681B681A6A41F211132E
:105328001340002B0FD17B681B681A6A40F2444374
:105338001340002B07D17B681B681A687B681B68C1
:1053480022F001021A607B68012283F839200023C9
:1053580018460837BD4680BD0000014000040140E2
:1053680080B582B000AF786039603B680C2B41D8BB
:1053780001A252F823F000BFB5530008FD530008FE
:10538800FD530008FD530008C7530008FD530008EB
:10539800FD530008FD530008D9530008FD530008C9
:1053A800FD530008FD530008EB5300087B681B6899
:1053B800DA687B681B6842F00202DA601BE07B68EF
:1053C8001B68DA687B681B6842F00402DA6012E046
:1053D8007B681B68DA687B681B6842F00802DA6041
:1053E80009E07B681B68DA687B681B6842F010027A
:1053F800DA6000E000BF7B681B6801223968184644
:1054080002F066FD7B681B68104A934204D07B68F3
:105418001B680F4A934201D1012300E00023002BAF
:1054280007D07B681B685A6C7B681B6842F4004293
:105438005A647B681B681A687B681B6842F0010223
:105448001A60002318460837BD4680BD0000014099
:105458000004014080B582B000AF786039603B68D5
:105468000C2B41D801A252F823F000BFA954000820
:10547800F1540008F1540008F1540008BB54000826
:10548800F1540008F1540008F1540008CD54000804
:10549800F1540008F1540008F1540008DF540008E2
:1054A8007B681B68DA687B681B6822F00202DA6096
:1054B8001BE07B681B68DA687B681B6822F00402C3
:1054C800DA6012E07B681B68DA687B681B6822F088
:1054D8000802DA6009E07B681B68DA687B681B6889
:1054E80022F01002DA6000E000BF7B681B6800222F
:1054F8003968184602F0ECFC7B681B68204A934226
:1055080004D07B681B681F4A934201D1012300E045
:105518000023002B17D07B681B681A6A41F211130D
:105528001340002B0FD17B681B681A6A40F2444372
:105538001340002B07D17B681B685A6C7B681B687B
:1055480022F400425A647B681B681A6A41F21113FC
:105558001340002B0FD17B681B681A6A40F2444342
:105568001340002B07D17B681B681A687B681B688F
:1055780022F001021A60002318460837BD4680BD94
:10558800000001400004014080B584B000AFF8601D
:10559800B9607A607B80FB6893F83930DBB2022B04
:1055A80001D10223C6E0FB6893F83930DBB2012B46
:1055B8000BD17B68002B04D17B88002B01D0012301
:1055C800B8E0FB68022283F83920BB680C2B00F294
:1055D800898001A252F823F015560008ED560008FC
:1055E800ED560008ED5600084B560008ED56000829
:1055F800ED560008ED56000881560008ED560008E3
:10560800ED560008ED560008B7560008FB681B6AFF
:105618004A4ADA63FB681B6A494ADA64FB68186A13
:105628007968FB681B6834331A467B88FDF7F3FA00
:10563800FB681B68DA68FB681B6842F40072DA6072
:1056480051E0FB685B6A3D4ADA63FB685B6A3C4A87
:10565800DA64FB68586A7968FB681B6838331A464D
:105668007B88FDF7D8FAFB681B68DA68FB681B685B
:1056780042F48062DA6036E0FB689B6A2F4ADA639C
:10568800FB689B6A2E4ADA64FB68986A7968FB684B
:105698001B683C331A467B88FDF7BDFAFB681B681C
:1056A800DA68FB681B6842F40062DA601BE0FB689A
:1056B800DB6A224ADA63FB68DB6A214ADA64FB6840
:1056C800D86A7968FB681B6840331A467B88FDF7FF
:1056D800A2FAFB681B68DA68FB681B6842F4805210
:1056E800DA6000E000BFFB681B680122B968184651
:1056F80002F0EEFBFB681B68124A934204D0FB6879
:105708001B68114A934201D1012300E00023002BBA
:1057180007D0FB681B685A6CFB681B6842F40042A0
:105728005A64FB681B681A68FB681B6842F0010230
:105738001A60002318461037BD4680BDD57D000885
:10574800457E0008000001400004014080B582B099
:1057580000AF786039603B680C2B41D801A252F841
:1057680023F000BFA1570008E9570008E9570008CF
:10577800E9570008B3570008E9570008E957000837
:10578800E9570008C5570008E9570008E957000815
:10579800E9570008D75700087B681B68DA687B68F8
:1057A8001B6822F40072DA601BE07B681B68DA6809
:1057B8007B681B6822F48062DA6012E07B681B68F1
:1057C800DA687B681B6822F40062DA6009E07B68AB
:1057D8001B68DA687B681B6822F48052DA6000E094
:1057E80000BF7B681B6800223968184602F070FB0E
:1057F8007B681B68224A934204D07B681B68214A55
:10580800934201D1012300E00023002B17D07B68CD
:105818001B681A6A41F211131340002B0FD17B68E1
:105828001B681A6A40F244431340002B07D17B6877
:105838001B685A6C7B681B6822F400425A647B68B8
:105848001B681A6A41F211131340002B0FD17B68B1
:105858001B681A6A40F244431340002B07D17B6847
:105868001B681A687B681B6822F001021A607B6853
:10587800012283F83920002318460837BD4680BD29
:10588800000001400004014080B582B000AF78609C
:105898007B68002B01D101231DE07B6893F8393028
:1058A800DBB2002B06D17B68002283F838207868A9
:1058B80000F045F87B68022283F839207B681A6873
:1058C8007B6804331946104602F0E2F87B6801222F
:1058D80083F83920002318460837BD4680BD80B5B7
:1058E80082B000AF78607B68022283F839207B6839
:1058F8001B681A6A41F211131340002B0FD17B6801
:105908001B681A6A40F244431340002B07D17B6896
:105918001B681A687B681B6822F001021A607868A5
:1059280000F017F87B68002283F839207B68002292
:1059380083F83820002318460837BD4680BD80B458
:1059480083B000AF786000BF0C37BD465DF8047BBC
:10595800704780B483B000AF786000BF0C37BD4695
:105968005DF8047B704780B582B000AF786039601D
:105978007B681B6801223968184602F0A9FA7B681F
:105988001B681A687B681B6842F001021A600023D2
:1059980018460837BD4680BD80B582B000AF786034
:1059A80039607B681B6800223968184602F090FA53
:1059B8007B681B681A6A41F211131340002B0FD140
:1059C8007B681B681A6A40F244431340002B07D1D6
:1059D8007B681B681A687B681B6822F001021A60E2
:1059E800002318460837BD4680BD80B582B000AF99
:1059F800786039603B680C2B40D801A252F823F03C
:105A08003D5A0008855A0008855A0008855A00083A
:105A18004F5A0008855A0008855A0008855A000818
:105A2800615A0008855A0008855A0008855A0008F6
:105A3800735A00087B681B68DA687B681B6842F049
:105A48000202DA601BE07B681B68DA687B681B6807
:105A580042F00402DA6012E07B681B68DA687B684F
:105A68001B6842F00802DA6009E07B681B68DA68A4
:105A78007B681B6842F01002DA6000E000BF7B68B8
:105A88001B6801223968184602F022FA7B681B68F5
:105A98001A687B681B6842F001021A6000231846E6
:105AA8000837BD4680BD80B582B000AF78603960E8
:105AB8003B680C2B40D801A252F823F0F95A000891
:105AC800415B0008415B0008415B00080B5B000874
